{
  "address": "0xe7f1725E7734CE288F8367e1Bb143E90bb3F0512",
  "abi": [
    {
      "inputs": [],
      "stateMutability": "nonpayable",
      "type": "constructor"
    },
    {
      "inputs": [],
      "name": "MyEpicGame__BossHPEqualsToZero",
      "type": "error"
    },
    {
      "inputs": [],
      "name": "MyEpicGame__CharacterHPEqualsToZero",
      "type": "error"
    },
    {
      "anonymous": false,
      "inputs": [
        {
          "indexed": true,
          "internalType": "address",
          "name": "owner",
          "type": "address"
        },
        {
          "indexed": true,
          "internalType": "address",
          "name": "approved",
          "type": "address"
        },
        {
          "indexed": true,
          "internalType": "uint256",
          "name": "tokenId",
          "type": "uint256"
        }
      ],
      "name": "Approval",
      "type": "event"
    },
    {
      "anonymous": false,
      "inputs": [
        {
          "indexed": true,
          "internalType": "address",
          "name": "owner",
          "type": "address"
        },
        {
          "indexed": true,
          "internalType": "address",
          "name": "operator",
          "type": "address"
        },
        {
          "indexed": false,
          "internalType": "bool",
          "name": "approved",
          "type": "bool"
        }
      ],
      "name": "ApprovalForAll",
      "type": "event"
    },
    {
      "anonymous": false,
      "inputs": [
        {
          "indexed": false,
          "internalType": "address",
          "name": "sender",
          "type": "address"
        },
        {
          "indexed": false,
          "internalType": "uint256",
          "name": "newBossHp",
          "type": "uint256"
        },
        {
          "indexed": false,
          "internalType": "uint256",
          "name": "newCharacterHp",
          "type": "uint256"
        }
      ],
      "name": "AttackComplete",
      "type": "event"
    },
    {
      "anonymous": false,
      "inputs": [
        {
          "indexed": false,
          "internalType": "address",
          "name": "sender",
          "type": "address"
        }
      ],
      "name": "BossKilled",
      "type": "event"
    },
    {
      "anonymous": false,
      "inputs": [
        {
          "indexed": false,
          "internalType": "address",
          "name": "sender",
          "type": "address"
        },
        {
          "indexed": false,
          "internalType": "uint256",
          "name": "tokenId",
          "type": "uint256"
        },
        {
          "indexed": false,
          "internalType": "uint256",
          "name": "characterIndex",
          "type": "uint256"
        }
      ],
      "name": "CharacterNFTMinted",
      "type": "event"
    },
    {
      "anonymous": false,
      "inputs": [
        {
          "indexed": true,
          "internalType": "address",
          "name": "from",
          "type": "address"
        },
        {
          "indexed": true,
          "internalType": "address",
          "name": "to",
          "type": "address"
        },
        {
          "indexed": true,
          "internalType": "uint256",
          "name": "tokenId",
          "type": "uint256"
        }
      ],
      "name": "Transfer",
      "type": "event"
    },
    {
      "inputs": [
        {
          "internalType": "address",
          "name": "to",
          "type": "address"
        },
        {
          "internalType": "uint256",
          "name": "tokenId",
          "type": "uint256"
        }
      ],
      "name": "approve",
      "outputs": [],
      "stateMutability": "nonpayable",
      "type": "function"
    },
    {
      "inputs": [
        {
          "internalType": "contract GameEngine",
          "name": "_contract",
          "type": "address"
        },
        {
          "internalType": "uint256",
          "name": "bossIndex",
          "type": "uint256"
        }
      ],
      "name": "attackBoss",
      "outputs": [],
      "stateMutability": "nonpayable",
      "type": "function"
    },
    {
      "inputs": [
        {
          "internalType": "address",
          "name": "owner",
          "type": "address"
        }
      ],
      "name": "balanceOf",
      "outputs": [
        {
          "internalType": "uint256",
          "name": "",
          "type": "uint256"
        }
      ],
      "stateMutability": "view",
      "type": "function"
    },
    {
      "inputs": [
        {
          "internalType": "uint256",
          "name": "",
          "type": "uint256"
        }
      ],
      "name": "bossAttributes",
      "outputs": [
        {
          "internalType": "uint256",
          "name": "bossIndex",
          "type": "uint256"
        },
        {
          "internalType": "string",
          "name": "name",
          "type": "string"
        },
        {
          "internalType": "string",
          "name": "imageURI",
          "type": "string"
        },
        {
          "internalType": "uint256",
          "name": "hp",
          "type": "uint256"
        },
        {
          "internalType": "uint256",
          "name": "maxHp",
          "type": "uint256"
        },
        {
          "internalType": "uint256",
          "name": "attackDamage",
          "type": "uint256"
        },
        {
          "internalType": "uint256",
          "name": "bossExp",
          "type": "uint256"
        }
      ],
      "stateMutability": "view",
      "type": "function"
    },
    {
      "inputs": [],
      "name": "checkIfUserHasNFT",
      "outputs": [
        {
          "components": [
            {
              "internalType": "uint256",
              "name": "characterIndex",
              "type": "uint256"
            },
            {
              "internalType": "string",
              "name": "name",
              "type": "string"
            },
            {
              "internalType": "string",
              "name": "imageURI",
              "type": "string"
            },
            {
              "internalType": "uint256",
              "name": "level",
              "type": "uint256"
            },
            {
              "internalType": "uint256",
              "name": "exp",
              "type": "uint256"
            },
            {
              "internalType": "uint256",
              "name": "maxExp",
              "type": "uint256"
            },
            {
              "internalType": "uint256",
              "name": "hp",
              "type": "uint256"
            },
            {
              "internalType": "uint256",
              "name": "maxHp",
              "type": "uint256"
            },
            {
              "internalType": "uint256",
              "name": "attackDamage",
              "type": "uint256"
            },
            {
              "internalType": "uint256",
              "name": "dexterity",
              "type": "uint256"
            },
            {
              "internalType": "uint256",
              "name": "luck",
              "type": "uint256"
            }
          ],
          "internalType": "struct MyEpicGame.CharacterAttributes",
          "name": "",
          "type": "tuple"
        }
      ],
      "stateMutability": "view",
      "type": "function"
    },
    {
      "inputs": [
        {
          "internalType": "string[]",
          "name": "bossName",
          "type": "string[]"
        },
        {
          "internalType": "string[]",
          "name": "bossImageURI",
          "type": "string[]"
        },
        {
          "internalType": "uint256[]",
          "name": "bossHp",
          "type": "uint256[]"
        },
        {
          "internalType": "uint256[]",
          "name": "bossAttackDamage",
          "type": "uint256[]"
        },
        {
          "internalType": "uint256[]",
          "name": "bossExp",
          "type": "uint256[]"
        }
      ],
      "name": "createBosses",
      "outputs": [],
      "stateMutability": "nonpayable",
      "type": "function"
    },
    {
      "inputs": [
        {
          "internalType": "string[]",
          "name": "characterNames",
          "type": "string[]"
        },
        {
          "internalType": "string[]",
          "name": "characterImageURIs",
          "type": "string[]"
        },
        {
          "internalType": "uint256[]",
          "name": "characterHp",
          "type": "uint256[]"
        },
        {
          "internalType": "uint256[]",
          "name": "characterAttackDmg",
          "type": "uint256[]"
        },
        {
          "internalType": "uint256[]",
          "name": "characterDexterity",
          "type": "uint256[]"
        },
        {
          "internalType": "uint256[]",
          "name": "characterLuck",
          "type": "uint256[]"
        }
      ],
      "name": "createCharacters",
      "outputs": [],
      "stateMutability": "nonpayable",
      "type": "function"
    },
    {
      "inputs": [],
      "name": "getAllDefaultCharacters",
      "outputs": [
        {
          "components": [
            {
              "internalType": "uint256",
              "name": "characterIndex",
              "type": "uint256"
            },
            {
              "internalType": "string",
              "name": "name",
              "type": "string"
            },
            {
              "internalType": "string",
              "name": "imageURI",
              "type": "string"
            },
            {
              "internalType": "uint256",
              "name": "level",
              "type": "uint256"
            },
            {
              "internalType": "uint256",
              "name": "exp",
              "type": "uint256"
            },
            {
              "internalType": "uint256",
              "name": "maxExp",
              "type": "uint256"
            },
            {
              "internalType": "uint256",
              "name": "hp",
              "type": "uint256"
            },
            {
              "internalType": "uint256",
              "name": "maxHp",
              "type": "uint256"
            },
            {
              "internalType": "uint256",
              "name": "attackDamage",
              "type": "uint256"
            },
            {
              "internalType": "uint256",
              "name": "dexterity",
              "type": "uint256"
            },
            {
              "internalType": "uint256",
              "name": "luck",
              "type": "uint256"
            }
          ],
          "internalType": "struct MyEpicGame.CharacterAttributes[]",
          "name": "",
          "type": "tuple[]"
        }
      ],
      "stateMutability": "view",
      "type": "function"
    },
    {
      "inputs": [
        {
          "internalType": "uint256",
          "name": "tokenId",
          "type": "uint256"
        }
      ],
      "name": "getApproved",
      "outputs": [
        {
          "internalType": "address",
          "name": "",
          "type": "address"
        }
      ],
      "stateMutability": "view",
      "type": "function"
    },
    {
      "inputs": [
        {
          "internalType": "uint256",
          "name": "bossIndex",
          "type": "uint256"
        }
      ],
      "name": "getBossAttributes",
      "outputs": [
        {
          "components": [
            {
              "internalType": "uint256",
              "name": "bossIndex",
              "type": "uint256"
            },
            {
              "internalType": "string",
              "name": "name",
              "type": "string"
            },
            {
              "internalType": "string",
              "name": "imageURI",
              "type": "string"
            },
            {
              "internalType": "uint256",
              "name": "hp",
              "type": "uint256"
            },
            {
              "internalType": "uint256",
              "name": "maxHp",
              "type": "uint256"
            },
            {
              "internalType": "uint256",
              "name": "attackDamage",
              "type": "uint256"
            },
            {
              "internalType": "uint256",
              "name": "bossExp",
              "type": "uint256"
            }
          ],
          "internalType": "struct MyEpicGame.BossAttributes",
          "name": "",
          "type": "tuple"
        }
      ],
      "stateMutability": "view",
      "type": "function"
    },
    {
      "inputs": [
        {
          "internalType": "uint256",
          "name": "characterIndex",
          "type": "uint256"
        }
      ],
      "name": "getCharacterAttributes",
      "outputs": [
        {
          "components": [
            {
              "internalType": "uint256",
              "name": "characterIndex",
              "type": "uint256"
            },
            {
              "internalType": "string",
              "name": "name",
              "type": "string"
            },
            {
              "internalType": "string",
              "name": "imageURI",
              "type": "string"
            },
            {
              "internalType": "uint256",
              "name": "level",
              "type": "uint256"
            },
            {
              "internalType": "uint256",
              "name": "exp",
              "type": "uint256"
            },
            {
              "internalType": "uint256",
              "name": "maxExp",
              "type": "uint256"
            },
            {
              "internalType": "uint256",
              "name": "hp",
              "type": "uint256"
            },
            {
              "internalType": "uint256",
              "name": "maxHp",
              "type": "uint256"
            },
            {
              "internalType": "uint256",
              "name": "attackDamage",
              "type": "uint256"
            },
            {
              "internalType": "uint256",
              "name": "dexterity",
              "type": "uint256"
            },
            {
              "internalType": "uint256",
              "name": "luck",
              "type": "uint256"
            }
          ],
          "internalType": "struct MyEpicGame.CharacterAttributes",
          "name": "",
          "type": "tuple"
        }
      ],
      "stateMutability": "view",
      "type": "function"
    },
    {
      "inputs": [],
      "name": "getOwnerOfContract",
      "outputs": [
        {
          "internalType": "address",
          "name": "",
          "type": "address"
        }
      ],
      "stateMutability": "view",
      "type": "function"
    },
    {
      "inputs": [
        {
          "internalType": "uint256",
          "name": "news_maxLevel",
          "type": "uint256"
        }
      ],
      "name": "incrementsMaxLevel",
      "outputs": [],
      "stateMutability": "nonpayable",
      "type": "function"
    },
    {
      "inputs": [
        {
          "internalType": "address",
          "name": "owner",
          "type": "address"
        },
        {
          "internalType": "address",
          "name": "operator",
          "type": "address"
        }
      ],
      "name": "isApprovedForAll",
      "outputs": [
        {
          "internalType": "bool",
          "name": "",
          "type": "bool"
        }
      ],
      "stateMutability": "view",
      "type": "function"
    },
    {
      "inputs": [
        {
          "internalType": "uint256",
          "name": "_characterIndex",
          "type": "uint256"
        }
      ],
      "name": "mintCharacterNFT",
      "outputs": [],
      "stateMutability": "nonpayable",
      "type": "function"
    },
    {
      "inputs": [],
      "name": "name",
      "outputs": [
        {
          "internalType": "string",
          "name": "",
          "type": "string"
        }
      ],
      "stateMutability": "view",
      "type": "function"
    },
    {
      "inputs": [
        {
          "internalType": "uint256",
          "name": "",
          "type": "uint256"
        }
      ],
      "name": "nftHolderAttributes",
      "outputs": [
        {
          "internalType": "uint256",
          "name": "characterIndex",
          "type": "uint256"
        },
        {
          "internalType": "string",
          "name": "name",
          "type": "string"
        },
        {
          "internalType": "string",
          "name": "imageURI",
          "type": "string"
        },
        {
          "internalType": "uint256",
          "name": "level",
          "type": "uint256"
        },
        {
          "internalType": "uint256",
          "name": "exp",
          "type": "uint256"
        },
        {
          "internalType": "uint256",
          "name": "maxExp",
          "type": "uint256"
        },
        {
          "internalType": "uint256",
          "name": "hp",
          "type": "uint256"
        },
        {
          "internalType": "uint256",
          "name": "maxHp",
          "type": "uint256"
        },
        {
          "internalType": "uint256",
          "name": "attackDamage",
          "type": "uint256"
        },
        {
          "internalType": "uint256",
          "name": "dexterity",
          "type": "uint256"
        },
        {
          "internalType": "uint256",
          "name": "luck",
          "type": "uint256"
        }
      ],
      "stateMutability": "view",
      "type": "function"
    },
    {
      "inputs": [
        {
          "internalType": "address",
          "name": "",
          "type": "address"
        }
      ],
      "name": "nftHolders",
      "outputs": [
        {
          "internalType": "uint256",
          "name": "",
          "type": "uint256"
        }
      ],
      "stateMutability": "view",
      "type": "function"
    },
    {
      "inputs": [
        {
          "internalType": "uint256",
          "name": "tokenId",
          "type": "uint256"
        }
      ],
      "name": "ownerOf",
      "outputs": [
        {
          "internalType": "address",
          "name": "",
          "type": "address"
        }
      ],
      "stateMutability": "view",
      "type": "function"
    },
    {
      "inputs": [
        {
          "internalType": "address",
          "name": "from",
          "type": "address"
        },
        {
          "internalType": "address",
          "name": "to",
          "type": "address"
        },
        {
          "internalType": "uint256",
          "name": "tokenId",
          "type": "uint256"
        }
      ],
      "name": "safeTransferFrom",
      "outputs": [],
      "stateMutability": "nonpayable",
      "type": "function"
    },
    {
      "inputs": [
        {
          "internalType": "address",
          "name": "from",
          "type": "address"
        },
        {
          "internalType": "address",
          "name": "to",
          "type": "address"
        },
        {
          "internalType": "uint256",
          "name": "tokenId",
          "type": "uint256"
        },
        {
          "internalType": "bytes",
          "name": "data",
          "type": "bytes"
        }
      ],
      "name": "safeTransferFrom",
      "outputs": [],
      "stateMutability": "nonpayable",
      "type": "function"
    },
    {
      "inputs": [
        {
          "internalType": "address",
          "name": "operator",
          "type": "address"
        },
        {
          "internalType": "bool",
          "name": "approved",
          "type": "bool"
        }
      ],
      "name": "setApprovalForAll",
      "outputs": [],
      "stateMutability": "nonpayable",
      "type": "function"
    },
    {
      "inputs": [
        {
          "internalType": "bytes4",
          "name": "interfaceId",
          "type": "bytes4"
        }
      ],
      "name": "supportsInterface",
      "outputs": [
        {
          "internalType": "bool",
          "name": "",
          "type": "bool"
        }
      ],
      "stateMutability": "view",
      "type": "function"
    },
    {
      "inputs": [],
      "name": "symbol",
      "outputs": [
        {
          "internalType": "string",
          "name": "",
          "type": "string"
        }
      ],
      "stateMutability": "view",
      "type": "function"
    },
    {
      "inputs": [
        {
          "internalType": "uint256",
          "name": "_tokenId",
          "type": "uint256"
        }
      ],
      "name": "tokenURI",
      "outputs": [
        {
          "internalType": "string",
          "name": "",
          "type": "string"
        }
      ],
      "stateMutability": "view",
      "type": "function"
    },
    {
      "inputs": [
        {
          "internalType": "address",
          "name": "from",
          "type": "address"
        },
        {
          "internalType": "address",
          "name": "to",
          "type": "address"
        },
        {
          "internalType": "uint256",
          "name": "tokenId",
          "type": "uint256"
        }
      ],
      "name": "transferFrom",
      "outputs": [],
      "stateMutability": "nonpayable",
      "type": "function"
    }
  ],
  "transactionHash": "0xe9c12402e79f7869845af63d98d5a36a46914e60507a5229727eb7beb90c9dca",
  "args": [],
  "numDeployments": 1,
  "solcInputHash": "7e5934d1a6ce161abfe6e905798601e3",
  "bytecode": "0x60806040523480156200001157600080fd5b506040518060400160405280600681526020017f4865726f657300000000000000000000000000000000000000000000000000008152506040518060400160405280600481526020017f4845524f000000000000000000000000000000000000000000000000000000008152508160009080519060200190620000969291906200012e565b508060019080519060200190620000af9291906200012e565b50505033600960006101000a81548173ffffffffffffffffffffffffffffffffffffffff021916908373ffffffffffffffffffffffffffffffffffffffff1602179055506014600a819055506200011260066200011860201b620029b91760201c565b62000243565b6001816000016000828254019250508190555050565b8280546200013c90620001de565b90600052602060002090601f016020900481019282620001605760008555620001ac565b82601f106200017b57805160ff1916838001178555620001ac565b82800160010185558215620001ac579182015b82811115620001ab5782518255916020019190600101906200018e565b5b509050620001bb9190620001bf565b5090565b5b80821115620001da576000816000905550600101620001c0565b5090565b60006002820490506001821680620001f757607f821691505b602082108114156200020e576200020d62000214565b5b50919050565b7f4e487b7100000000000000000000000000000000000000000000000000000000600052602260045260246000fd5b615db780620002536000396000f3fe608060405234801561001057600080fd5b506004361061018e5760003560e01c806398da4c95116100de578063c87b56dd11610097578063dbdd55fd11610071578063dbdd55fd146104c3578063e985e9c5146104df578063f8b81ef71461050f578063fbbdb93d1461052b5761018e565b8063c87b56dd14610445578063c8cf27f414610475578063d0e60cff146104935761018e565b806398da4c9514610369578063a22cb465146103a3578063a81f840b146103bf578063b88d4fde146103ef578063b953084e1461040b578063c2f3dad0146104295761018e565b806323b872dd1161014b5780636352211e116101255780636352211e146102bb57806370a08231146102eb5780637df124a11461031b57806395d89b411461034b5761018e565b806323b872dd146102675780632e0891ce1461028357806342842e0e1461029f5761018e565b806301ffc9a7146101935780630682ebb8146101c357806306fdde03146101df578063081812fc146101fd578063095ea7b31461022d5780631567802a14610249575b600080fd5b6101ad60048036038101906101a891906144d4565b610561565b6040516101ba9190614e14565b60405180910390f35b6101dd60048036038101906101d8919061452e565b610643565b005b6101e7610b3a565b6040516101f49190614e2f565b60405180910390f35b6102176004803603810190610212919061456e565b610bcc565b6040516102249190614d2b565b60405180910390f35b6102476004803603810190610242919061422b565b610c12565b005b610251610d2a565b60405161025e9190614d2b565b60405180910390f35b610281600480360381019061027c9190614115565b610d54565b005b61029d6004803603810190610298919061456e565b610db4565b005b6102b960048036038101906102b49190614115565b610e18565b005b6102d560048036038101906102d0919061456e565b610e38565b6040516102e29190614d2b565b60405180910390f35b610305600480360381019061030091906140a8565b610eea565b60405161031291906150d2565b60405180910390f35b610335600480360381019061033091906140a8565b610fa2565b60405161034291906150d2565b60405180910390f35b610353610fba565b6040516103609190614e2f565b60405180910390f35b610383600480360381019061037e919061456e565b61104c565b60405161039a9b9a9998979695949392919061516a565b60405180910390f35b6103bd60048036038101906103b891906141eb565b6111b6565b005b6103d960048036038101906103d4919061456e565b6111cc565b6040516103e6919061508e565b60405180910390f35b61040960048036038101906104049190614168565b61135e565b005b6104136113c0565b6040516104209190614df2565b60405180910390f35b610443600480360381019061043e919061426b565b61159e565b005b61045f600480360381019061045a919061456e565b611956565b60405161046c9190614e2f565b60405180910390f35b61047d611b9f565b60405161048a91906150b0565b60405180910390f35b6104ad60048036038101906104a8919061456e565b611da9565b6040516104ba91906150b0565b60405180910390f35b6104dd60048036038101906104d89190614372565b611f64565b005b6104f960048036038101906104f491906140d5565b6123b3565b6040516105069190614e14565b60405180910390f35b6105296004803603810190610524919061456e565b612447565b005b6105456004803603810190610540919061456e565b612867565b60405161055897969594939291906150ed565b60405180910390f35b60007f80ac58cd000000000000000000000000000000000000000000000000000000007bffffffffffffffffffffffffffffffffffffffffffffffffffffffff1916827bffffffffffffffffffffffffffffffffffffffffffffffffffffffff1916148061062c57507f5b5e139f000000000000000000000000000000000000000000000000000000007bffffffffffffffffffffffffffffffffffffffffffffffffffffffff1916827bffffffffffffffffffffffffffffffffffffffffffffffffffffffff1916145b8061063c575061063b826129cf565b5b9050919050565b6000600d60003373ffffffffffffffffffffffffffffffffffffffff1673ffffffffffffffffffffffffffffffffffffffff1681526020019081526020016000205490506000600b600083815260200190815260200160002090506000600884815481106106b4576106b36156d6565b5b90600052602060002090600702019050600082600601541015610703576040517fb78decec00000000000000000000000000000000000000000000000000000000815260040160405180910390fd5b600081600301541015610742576040517fff1d93a100000000000000000000000000000000000000000000000000000000815260040160405180910390fd5b8473ffffffffffffffffffffffffffffffffffffffff1663cdae62946040518163ffffffff1660e01b8152600401600060405180830381600087803b15801561078a57600080fd5b505af115801561079e573d6000803e3d6000fd5b505050508160080154816003015410156107c157600081600301819055506108a1565b8473ffffffffffffffffffffffffffffffffffffffff16637660d02a3384600a01546040518363ffffffff1660e01b8152600401610800929190614d92565b60206040518083038186803b15801561081857600080fd5b505afa15801561082c573d6000803e3d6000fd5b505050506040513d601f19601f8201168201806040525081019061085091906144a7565b1561088157600282600801546108669190615416565b8160030160008282546108799190615470565b925050819055505b81600801548160030160008282546108999190615470565b925050819055505b8473ffffffffffffffffffffffffffffffffffffffff1663cdae62946040518163ffffffff1660e01b8152600401600060405180830381600087803b1580156108e957600080fd5b505af11580156108fd573d6000803e3d6000fd5b505050508473ffffffffffffffffffffffffffffffffffffffff16637660d02a3384600901546040518363ffffffff1660e01b8152600401610940929190614d92565b60206040518083038186803b15801561095857600080fd5b505afa15801561096c573d6000803e3d6000fd5b505050506040513d601f19601f8201168201806040525081019061099091906144a7565b156109d8576109d36040518060400160405280600e81526020017f41747461636b20646f6467656421000000000000000000000000000000000000815250612a39565b610a15565b8060050154826006015410156109f75760008260060181905550610a14565b80600501548260060154610a0b9190615470565b82600601819055505b5b7f32bd565ee3f2cb5ddd742bbecd6048d3e9abe90b3827a40c2b72d232e71e3c9d3382600301548460060154604051610a5093929190614dbb565b60405180910390a1610a7e604051806060016040528060268152602001615ca5602691398260030154612ad2565b610aa4604051806060016040528060288152602001615d5a602891398360060154612ad2565b600081600301541415610b3357610aef6040518060400160405280600d81526020017f426f737320697320646561642100000000000000000000000000000000000000815250612a39565b610afc8160060154612b6e565b7e42b019bb8a8d9b770124d5307b958fd53cd267809c7fc55b95425d26056e4c33604051610b2a9190614d2b565b60405180910390a15b5050505050565b606060008054610b499061556c565b80601f0160208091040260200160405190810160405280929190818152602001828054610b759061556c565b8015610bc25780601f10610b9757610100808354040283529160200191610bc2565b820191906000526020600020905b815481529060010190602001808311610ba557829003601f168201915b5050505050905090565b6000610bd782612dd9565b6004600083815260200190815260200160002060009054906101000a900473ffffffffffffffffffffffffffffffffffffffff169050919050565b6000610c1d82610e38565b90508073ffffffffffffffffffffffffffffffffffffffff168373ffffffffffffffffffffffffffffffffffffffff161415610c8e576040517f08c379a0000000000000000000000000000000000000000000000000000000008152600401610c859061504e565b60405180910390fd5b8073ffffffffffffffffffffffffffffffffffffffff16610cad612e24565b73ffffffffffffffffffffffffffffffffffffffff161480610cdc5750610cdb81610cd6612e24565b6123b3565b5b610d1b576040517f08c379a0000000000000000000000000000000000000000000000000000000008152600401610d1290614fee565b60405180910390fd5b610d258383612e2c565b505050565b6000600960009054906101000a900473ffffffffffffffffffffffffffffffffffffffff16905090565b610d65610d5f612e24565b82612ee5565b610da4576040517f08c379a0000000000000000000000000000000000000000000000000000000008152600401610d9b9061506e565b60405180910390fd5b610daf838383612f7a565b505050565b600960009054906101000a900473ffffffffffffffffffffffffffffffffffffffff1673ffffffffffffffffffffffffffffffffffffffff163373ffffffffffffffffffffffffffffffffffffffff1614610e0e57600080fd5b80600a8190555050565b610e338383836040518060200160405280600081525061135e565b505050565b6000806002600084815260200190815260200160002060009054906101000a900473ffffffffffffffffffffffffffffffffffffffff169050600073ffffffffffffffffffffffffffffffffffffffff168173ffffffffffffffffffffffffffffffffffffffff161415610ee1576040517f08c379a0000000000000000000000000000000000000000000000000000000008152600401610ed89061502e565b60405180910390fd5b80915050919050565b60008073ffffffffffffffffffffffffffffffffffffffff168273ffffffffffffffffffffffffffffffffffffffff161415610f5b576040517f08c379a0000000000000000000000000000000000000000000000000000000008152600401610f5290614fce565b60405180910390fd5b600360008373ffffffffffffffffffffffffffffffffffffffff1673ffffffffffffffffffffffffffffffffffffffff168152602001908152602001600020549050919050565b600d6020528060005260406000206000915090505481565b606060018054610fc99061556c565b80601f0160208091040260200160405190810160405280929190818152602001828054610ff59061556c565b80156110425780601f1061101757610100808354040283529160200191611042565b820191906000526020600020905b81548152906001019060200180831161102557829003601f168201915b5050505050905090565b600b6020528060005260406000206000915090508060000154908060010180546110759061556c565b80601f01602080910402602001604051908101604052809291908181526020018280546110a19061556c565b80156110ee5780601f106110c3576101008083540402835291602001916110ee565b820191906000526020600020905b8154815290600101906020018083116110d157829003601f168201915b5050505050908060020180546111039061556c565b80601f016020809104026020016040519081016040528092919081815260200182805461112f9061556c565b801561117c5780601f106111515761010080835404028352916020019161117c565b820191906000526020600020905b81548152906001019060200180831161115f57829003601f168201915b50505050509080600301549080600401549080600501549080600601549080600701549080600801549080600901549080600a015490508b565b6111c86111c1612e24565b83836131e1565b5050565b6111d4613ca1565b600882815481106111e8576111e76156d6565b5b90600052602060002090600702016040518060e00160405290816000820154815260200160018201805461121b9061556c565b80601f01602080910402602001604051908101604052809291908181526020018280546112479061556c565b80156112945780601f1061126957610100808354040283529160200191611294565b820191906000526020600020905b81548152906001019060200180831161127757829003601f168201915b505050505081526020016002820180546112ad9061556c565b80601f01602080910402602001604051908101604052809291908181526020018280546112d99061556c565b80156113265780601f106112fb57610100808354040283529160200191611326565b820191906000526020600020905b81548152906001019060200180831161130957829003601f168201915b505050505081526020016003820154815260200160048201548152602001600582015481526020016006820154815250509050919050565b61136f611369612e24565b83612ee5565b6113ae576040517f08c379a00000000000000000000000000000000000000000000000000000000081526004016113a59061506e565b60405180910390fd5b6113ba8484848461334e565b50505050565b60606007805480602002602001604051908101604052809291908181526020016000905b8282101561159557838290600052602060002090600b020160405180610160016040529081600082015481526020016001820180546114229061556c565b80601f016020809104026020016040519081016040528092919081815260200182805461144e9061556c565b801561149b5780601f106114705761010080835404028352916020019161149b565b820191906000526020600020905b81548152906001019060200180831161147e57829003601f168201915b505050505081526020016002820180546114b49061556c565b80601f01602080910402602001604051908101604052809291908181526020018280546114e09061556c565b801561152d5780601f106115025761010080835404028352916020019161152d565b820191906000526020600020905b81548152906001019060200180831161151057829003601f168201915b5050505050815260200160038201548152602001600482015481526020016005820154815260200160068201548152602001600782015481526020016008820154815260200160098201548152602001600a82015481525050815260200190600101906113e4565b50505050905090565b600960009054906101000a900473ffffffffffffffffffffffffffffffffffffffff1673ffffffffffffffffffffffffffffffffffffffff163373ffffffffffffffffffffffffffffffffffffffff16146115f857600080fd5b6000600880549050905060005b865181101561194d5760086040518060e001604052808484611627919061538f565b815260200189848151811061163f5761163e6156d6565b5b6020026020010151815260200188848151811061165f5761165e6156d6565b5b6020026020010151815260200187848151811061167f5761167e6156d6565b5b6020026020010151815260200187848151811061169f5761169e6156d6565b5b602002602001015181526020018684815181106116bf576116be6156d6565b5b602002602001015181526020018584815181106116df576116de6156d6565b5b60200260200101518152509080600181540180825580915050600190039060005260206000209060070201600090919091909150600082015181600001556020820151816001019080519060200190611739929190613cde565b506040820151816002019080519060200190611756929190613cde565b50606082015181600301556080820151816004015560a0820151816005015560c082015181600601555050600060088281548110611797576117966156d6565b5b90600052602060002090600702016040518060e0016040529081600082015481526020016001820180546117ca9061556c565b80601f01602080910402602001604051908101604052809291908181526020018280546117f69061556c565b80156118435780601f1061181857610100808354040283529160200191611843565b820191906000526020600020905b81548152906001019060200180831161182657829003601f168201915b5050505050815260200160028201805461185c9061556c565b80601f01602080910402602001604051908101604052809291908181526020018280546118889061556c565b80156118d55780601f106118aa576101008083540402835291602001916118d5565b820191906000526020600020905b8154815290600101906020018083116118b857829003601f168201915b505050505081526020016003820154815260200160048201548152602001600582015481526020016006820154815250509050611938604051806060016040528060258152602001615cf5602591398260200151836060015184604001516133aa565b50600181611946919061538f565b9050611605565b50505050505050565b60606000600b600084815260200190815260200160002060405180610160016040529081600082015481526020016001820180546119939061556c565b80601f01602080910402602001604051908101604052809291908181526020018280546119bf9061556c565b8015611a0c5780601f106119e157610100808354040283529160200191611a0c565b820191906000526020600020905b8154815290600101906020018083116119ef57829003601f168201915b50505050508152602001600282018054611a259061556c565b80601f0160208091040260200160405190810160405280929190818152602001828054611a519061556c565b8015611a9e5780601f10611a7357610100808354040283529160200191611a9e565b820191906000526020600020905b815481529060010190602001808311611a8157829003601f168201915b5050505050815260200160038201548152602001600482015481526020016005820154815260200160068201548152602001600782015481526020016008820154815260200160098201548152602001600a8201548152505090506000611b088260c0015161344c565b90506000611b198360e0015161344c565b90506000611b2b84610100015161344c565b90506000611b718560200151611b408961344c565b8760400151878787604051602001611b5d96959493929190614c64565b6040516020818303038152906040526135ad565b905080604051602001611b849190614d09565b60405160208183030381529060405295505050505050919050565b611ba7613d64565b6000600d60003373ffffffffffffffffffffffffffffffffffffffff1673ffffffffffffffffffffffffffffffffffffffff16815260200190815260200160002054905060008114611d9857600b60008281526020019081526020016000206040518061016001604052908160008201548152602001600182018054611c2c9061556c565b80601f0160208091040260200160405190810160405280929190818152602001828054611c589061556c565b8015611ca55780601f10611c7a57610100808354040283529160200191611ca5565b820191906000526020600020905b815481529060010190602001808311611c8857829003601f168201915b50505050508152602001600282018054611cbe9061556c565b80601f0160208091040260200160405190810160405280929190818152602001828054611cea9061556c565b8015611d375780601f10611d0c57610100808354040283529160200191611d37565b820191906000526020600020905b815481529060010190602001808311611d1a57829003601f168201915b5050505050815260200160038201548152602001600482015481526020016005820154815260200160068201548152602001600782015481526020016008820154815260200160098201548152602001600a82015481525050915050611da6565b611da0613d64565b80925050505b90565b611db1613d64565b60078281548110611dc557611dc46156d6565b5b90600052602060002090600b02016040518061016001604052908160008201548152602001600182018054611df99061556c565b80601f0160208091040260200160405190810160405280929190818152602001828054611e259061556c565b8015611e725780601f10611e4757610100808354040283529160200191611e72565b820191906000526020600020905b815481529060010190602001808311611e5557829003601f168201915b50505050508152602001600282018054611e8b9061556c565b80601f0160208091040260200160405190810160405280929190818152602001828054611eb79061556c565b8015611f045780601f10611ed957610100808354040283529160200191611f04565b820191906000526020600020905b815481529060010190602001808311611ee757829003601f168201915b5050505050815260200160038201548152602001600482015481526020016005820154815260200160068201548152602001600782015481526020016008820154815260200160098201548152602001600a820154815250509050919050565b600960009054906101000a900473ffffffffffffffffffffffffffffffffffffffff1673ffffffffffffffffffffffffffffffffffffffff163373ffffffffffffffffffffffffffffffffffffffff1614611fbe57600080fd5b6000600780549050905060005b87518110156123a95760076040518061016001604052808484611fee919061538f565b81526020018a8481518110612006576120056156d6565b5b60200260200101518152602001898481518110612026576120256156d6565b5b6020026020010151815260200160018152602001600081526020016103e8815260200188848151811061205c5761205b6156d6565b5b6020026020010151815260200188848151811061207c5761207b6156d6565b5b6020026020010151815260200187848151811061209c5761209b6156d6565b5b602002602001015181526020018684815181106120bc576120bb6156d6565b5b602002602001015181526020018584815181106120dc576120db6156d6565b5b602002602001015181525090806001815401808255809150506001900390600052602060002090600b0201600090919091909150600082015181600001556020820151816001019080519060200190612136929190613cde565b506040820151816002019080519060200190612153929190613cde565b50606082015181600301556080820151816004015560a0820151816005015560c0820151816006015560e082015181600701556101008201518160080155610120820151816009015561014082015181600a015550506000600783836121b9919061538f565b815481106121ca576121c96156d6565b5b90600052602060002090600b020160405180610160016040529081600082015481526020016001820180546121fe9061556c565b80601f016020809104026020016040519081016040528092919081815260200182805461222a9061556c565b80156122775780601f1061224c57610100808354040283529160200191612277565b820191906000526020600020905b81548152906001019060200180831161225a57829003601f168201915b505050505081526020016002820180546122909061556c565b80601f01602080910402602001604051908101604052809291908181526020018280546122bc9061556c565b80156123095780601f106122de57610100808354040283529160200191612309565b820191906000526020600020905b8154815290600101906020018083116122ec57829003601f168201915b5050505050815260200160038201548152602001600482015481526020016005820154815260200160068201548152602001600782015481526020016008820154815260200160098201548152602001600a8201548152505090506123946040518060600160405280602a8152602001615ccb602a913982602001518360c001518460000151613745565b506001816123a2919061538f565b9050611fcb565b5050505050505050565b6000600560008473ffffffffffffffffffffffffffffffffffffffff1673ffffffffffffffffffffffffffffffffffffffff16815260200190815260200160002060008373ffffffffffffffffffffffffffffffffffffffff1673ffffffffffffffffffffffffffffffffffffffff16815260200190815260200160002060009054906101000a900460ff16905092915050565b600061245360066137e7565b905061245f33826137f5565b60405180610160016040528083815260200160078481548110612485576124846156d6565b5b90600052602060002090600b020160010180546124a19061556c565b80601f01602080910402602001604051908101604052809291908181526020018280546124cd9061556c565b801561251a5780601f106124ef5761010080835404028352916020019161251a565b820191906000526020600020905b8154815290600101906020018083116124fd57829003601f168201915b5050505050815260200160078481548110612538576125376156d6565b5b90600052602060002090600b020160020180546125549061556c565b80601f01602080910402602001604051908101604052809291908181526020018280546125809061556c565b80156125cd5780601f106125a2576101008083540402835291602001916125cd565b820191906000526020600020905b8154815290600101906020018083116125b057829003601f168201915b50505050508152602001600784815481106125eb576125ea6156d6565b5b90600052602060002090600b020160030154815260200160078481548110612616576126156156d6565b5b90600052602060002090600b020160040154815260200160078481548110612641576126406156d6565b5b90600052602060002090600b02016005015481526020016007848154811061266c5761266b6156d6565b5b90600052602060002090600b020160060154815260200160078481548110612697576126966156d6565b5b90600052602060002090600b0201600701548152602001600784815481106126c2576126c16156d6565b5b90600052602060002090600b0201600801548152602001600784815481106126ed576126ec6156d6565b5b90600052602060002090600b020160090154815260200160078481548110612718576127176156d6565b5b90600052602060002090600b0201600a0154815250600b6000838152602001908152602001600020600082015181600001556020820151816001019080519060200190612766929190613cde565b506040820151816002019080519060200190612783929190613cde565b50606082015181600301556080820151816004015560a0820151816005015560c0820151816006015560e082015181600701556101008201518160080155610120820151816009015561014082015181600a015590505080600d60003373ffffffffffffffffffffffffffffffffffffffff1673ffffffffffffffffffffffffffffffffffffffff1681526020019081526020016000208190555061282860066129b9565b7f4bc303fd457a97b4691b9af582ce71868a3d258638c8d4f8c60988a0f0bfb8cd33828460405161285b93929190614dbb565b60405180910390a15050565b600c6020528060005260406000206000915090508060000154908060010180546128909061556c565b80601f01602080910402602001604051908101604052809291908181526020018280546128bc9061556c565b80156129095780601f106128de57610100808354040283529160200191612909565b820191906000526020600020905b8154815290600101906020018083116128ec57829003601f168201915b50505050509080600201805461291e9061556c565b80601f016020809104026020016040519081016040528092919081815260200182805461294a9061556c565b80156129975780601f1061296c57610100808354040283529160200191612997565b820191906000526020600020905b81548152906001019060200180831161297a57829003601f168201915b5050505050908060030154908060040154908060050154908060060154905087565b6001816000016000828254019250508190555050565b60007f01ffc9a7000000000000000000000000000000000000000000000000000000007bffffffffffffffffffffffffffffffffffffffffffffffffffffffff1916827bffffffffffffffffffffffffffffffffffffffffffffffffffffffff1916149050919050565b612acf81604051602401612a4d9190614e2f565b6040516020818303038152906040527f41304fac000000000000000000000000000000000000000000000000000000007bffffffffffffffffffffffffffffffffffffffffffffffffffffffff19166020820180517bffffffffffffffffffffffffffffffffffffffffffffffffffffffff8381831617835250505050613813565b50565b612b6a8282604051602401612ae8929190614efe565b6040516020818303038152906040527f9710a9d0000000000000000000000000000000000000000000000000000000007bffffffffffffffffffffffffffffffffffffffffffffffffffffffff19166020820180517bffffffffffffffffffffffffffffffffffffffffffffffffffffffff8381831617835250505050613813565b5050565b6000600d60003373ffffffffffffffffffffffffffffffffffffffff1673ffffffffffffffffffffffffffffffffffffffff1681526020019081526020016000205490506000600b6000838152602001908152602001600020905082816004016000828254612bdd919061538f565b925050819055505b8060050154816004015410612ccc57600a548160030154148015612c1157508060050154816004015410155b15612c665780600501548160040181905550612c616040518060400160405280601481526020017f506c61796572206973206d6178206c6576656c21000000000000000000000000815250612a39565b612ccc565b8060050154816004016000828254612c7e9190615470565b925050819055506001816003016000828254612c9a919061538f565b9250508190555060028160050154612cb29190615416565b816005018190555080600701548160060181905550612be5565b612d0f6040518060400160405280600d81526020017f4e6577206c6576656c3a202573000000000000000000000000000000000000008152508260030154612ad2565b612d4e6040518060400160405280601181526020017f426f73732078702061646465643a20257300000000000000000000000000000081525084612ad2565b612d916040518060400160405280600b81526020017f4e6577206578703a2025730000000000000000000000000000000000000000008152508260040154612ad2565b612dd46040518060400160405280600e81526020017f4e6577206d61784578703a2025730000000000000000000000000000000000008152508260050154612ad2565b505050565b612de28161383c565b612e21576040517f08c379a0000000000000000000000000000000000000000000000000000000008152600401612e189061502e565b60405180910390fd5b50565b600033905090565b816004600083815260200190815260200160002060006101000a81548173ffffffffffffffffffffffffffffffffffffffff021916908373ffffffffffffffffffffffffffffffffffffffff160217905550808273ffffffffffffffffffffffffffffffffffffffff16612e9f83610e38565b73ffffffffffffffffffffffffffffffffffffffff167f8c5be1e5ebec7d5bd14f71427d1e84f3dd0314c0f7b2291e5b200ac8c7c3b92560405160405180910390a45050565b600080612ef183610e38565b90508073ffffffffffffffffffffffffffffffffffffffff168473ffffffffffffffffffffffffffffffffffffffff161480612f335750612f3281856123b3565b5b80612f7157508373ffffffffffffffffffffffffffffffffffffffff16612f5984610bcc565b73ffffffffffffffffffffffffffffffffffffffff16145b91505092915050565b8273ffffffffffffffffffffffffffffffffffffffff16612f9a82610e38565b73ffffffffffffffffffffffffffffffffffffffff1614612ff0576040517f08c379a0000000000000000000000000000000000000000000000000000000008152600401612fe790614f4e565b60405180910390fd5b600073ffffffffffffffffffffffffffffffffffffffff168273ffffffffffffffffffffffffffffffffffffffff161415613060576040517f08c379a000000000000000000000000000000000000000000000000000000000815260040161305790614f8e565b60405180910390fd5b61306b8383836138a8565b613076600082612e2c565b6001600360008573ffffffffffffffffffffffffffffffffffffffff1673ffffffffffffffffffffffffffffffffffffffff16815260200190815260200160002060008282546130c69190615470565b925050819055506001600360008473ffffffffffffffffffffffffffffffffffffffff1673ffffffffffffffffffffffffffffffffffffffff168152602001908152602001600020600082825461311d919061538f565b92505081905550816002600083815260200190815260200160002060006101000a81548173ffffffffffffffffffffffffffffffffffffffff021916908373ffffffffffffffffffffffffffffffffffffffff160217905550808273ffffffffffffffffffffffffffffffffffffffff168473ffffffffffffffffffffffffffffffffffffffff167fddf252ad1be2c89b69c2b068fc378daa952ba7f163c4a11628f55a4df523b3ef60405160405180910390a46131dc8383836138ad565b505050565b8173ffffffffffffffffffffffffffffffffffffffff168373ffffffffffffffffffffffffffffffffffffffff161415613250576040517f08c379a000000000000000000000000000000000000000000000000000000000815260040161324790614fae565b60405180910390fd5b80600560008573ffffffffffffffffffffffffffffffffffffffff1673ffffffffffffffffffffffffffffffffffffffff16815260200190815260200160002060008473ffffffffffffffffffffffffffffffffffffffff1673ffffffffffffffffffffffffffffffffffffffff16815260200190815260200160002060006101000a81548160ff0219169083151502179055508173ffffffffffffffffffffffffffffffffffffffff168373ffffffffffffffffffffffffffffffffffffffff167f17307eab39ab6107e8899845ad3d59bd9653f200f220920489ca2b5937696c31836040516133419190614e14565b60405180910390a3505050565b613359848484612f7a565b613365848484846138b2565b6133a4576040517f08c379a000000000000000000000000000000000000000000000000000000000815260040161339b90614f2e565b60405180910390fd5b50505050565b613446848484846040516024016133c49493929190614e51565b6040516020818303038152906040527f8d142cdd000000000000000000000000000000000000000000000000000000007bffffffffffffffffffffffffffffffffffffffffffffffffffffffff19166020820180517bffffffffffffffffffffffffffffffffffffffffffffffffffffffff8381831617835250505050613813565b50505050565b60606000821415613494576040518060400160405280600181526020017f300000000000000000000000000000000000000000000000000000000000000081525090506135a8565b600082905060005b600082146134c65780806134af906155cf565b915050600a826134bf91906153e5565b915061349c565b60008167ffffffffffffffff8111156134e2576134e1615705565b5b6040519080825280601f01601f1916602001820160405280156135145781602001600182028036833780820191505090505b5090505b600085146135a15760018261352d9190615470565b9150600a8561353c9190615618565b6030613548919061538f565b60f81b81838151811061355e5761355d6156d6565b5b60200101907effffffffffffffffffffffffffffffffffffffffffffffffffffffffffffff1916908160001a905350600a8561359a91906153e5565b9450613518565b8093505050505b919050565b606060008251905060008114156135d65760405180602001604052806000815250915050613740565b600060036002836135e7919061538f565b6135f191906153e5565b60046135fd9190615416565b9050600060208261360e919061538f565b67ffffffffffffffff81111561362757613626615705565b5b6040519080825280601f01601f1916602001820160405280156136595781602001600182028036833780820191505090505b5090506000604051806060016040528060408152602001615d1a604091399050600181016020830160005b868110156136fd5760038101905062ffffff818a015116603f8160121c168401518060081b905060ff603f83600c1c1686015116810190508060081b905060ff603f8360061c1686015116810190508060081b905060ff603f831686015116810190508060e01b90508084526004840193505050613684565b506003860660018114613717576002811461372757613732565b613d3d60f01b6002830352613732565b603d60f81b60018303525b508484525050819450505050505b919050565b6137e18484848460405160240161375f9493929190614eab565b6040516020818303038152906040527fd5cf17d0000000000000000000000000000000000000000000000000000000007bffffffffffffffffffffffffffffffffffffffffffffffffffffffff19166020820180517bffffffffffffffffffffffffffffffffffffffffffffffffffffffff8381831617835250505050613813565b50505050565b600081600001549050919050565b61380f828260405180602001604052806000815250613a49565b5050565b60008151905060006a636f6e736f6c652e6c6f679050602083016000808483855afa5050505050565b60008073ffffffffffffffffffffffffffffffffffffffff166002600084815260200190815260200160002060009054906101000a900473ffffffffffffffffffffffffffffffffffffffff1673ffffffffffffffffffffffffffffffffffffffff1614159050919050565b505050565b505050565b60006138d38473ffffffffffffffffffffffffffffffffffffffff16613aa4565b15613a3c578373ffffffffffffffffffffffffffffffffffffffff1663150b7a026138fc612e24565b8786866040518563ffffffff1660e01b815260040161391e9493929190614d46565b602060405180830381600087803b15801561393857600080fd5b505af192505050801561396957506040513d601f19601f820116820180604052508101906139669190614501565b60015b6139ec573d8060008114613999576040519150601f19603f3d011682016040523d82523d6000602084013e61399e565b606091505b506000815114156139e4576040517f08c379a00000000000000000000000000000000000000000000000000000000081526004016139db90614f2e565b60405180910390fd5b805181602001fd5b63150b7a0260e01b7bffffffffffffffffffffffffffffffffffffffffffffffffffffffff1916817bffffffffffffffffffffffffffffffffffffffffffffffffffffffff191614915050613a41565b600190505b949350505050565b613a538383613ac7565b613a6060008484846138b2565b613a9f576040517f08c379a0000000000000000000000000000000000000000000000000000000008152600401613a9690614f2e565b60405180910390fd5b505050565b6000808273ffffffffffffffffffffffffffffffffffffffff163b119050919050565b600073ffffffffffffffffffffffffffffffffffffffff168273ffffffffffffffffffffffffffffffffffffffff161415613b37576040517f08c379a0000000000000000000000000000000000000000000000000000000008152600401613b2e9061500e565b60405180910390fd5b613b408161383c565b15613b80576040517f08c379a0000000000000000000000000000000000000000000000000000000008152600401613b7790614f6e565b60405180910390fd5b613b8c600083836138a8565b6001600360008473ffffffffffffffffffffffffffffffffffffffff1673ffffffffffffffffffffffffffffffffffffffff1681526020019081526020016000206000828254613bdc919061538f565b92505081905550816002600083815260200190815260200160002060006101000a81548173ffffffffffffffffffffffffffffffffffffffff021916908373ffffffffffffffffffffffffffffffffffffffff160217905550808273ffffffffffffffffffffffffffffffffffffffff16600073ffffffffffffffffffffffffffffffffffffffff167fddf252ad1be2c89b69c2b068fc378daa952ba7f163c4a11628f55a4df523b3ef60405160405180910390a4613c9d600083836138ad565b5050565b6040518060e00160405280600081526020016060815260200160608152602001600081526020016000815260200160008152602001600081525090565b828054613cea9061556c565b90600052602060002090601f016020900481019282613d0c5760008555613d53565b82601f10613d2557805160ff1916838001178555613d53565b82800160010185558215613d53579182015b82811115613d52578251825591602001919060010190613d37565b5b509050613d609190613dbe565b5090565b60405180610160016040528060008152602001606081526020016060815260200160008152602001600081526020016000815260200160008152602001600081526020016000815260200160008152602001600081525090565b5b80821115613dd7576000816000905550600101613dbf565b5090565b6000613dee613de984615248565b615223565b90508083825260208201905082856020860282011115613e1157613e10615739565b5b60005b85811015613e5f57813567ffffffffffffffff811115613e3757613e36615734565b5b808601613e448982614065565b85526020850194506020840193505050600181019050613e14565b5050509392505050565b6000613e7c613e7784615274565b615223565b90508083825260208201905082856020860282011115613e9f57613e9e615739565b5b60005b85811015613ecf5781613eb58882614093565b845260208401935060208301925050600181019050613ea2565b5050509392505050565b6000613eec613ee7846152a0565b615223565b905082815260208101848484011115613f0857613f0761573e565b5b613f1384828561552a565b509392505050565b6000613f2e613f29846152d1565b615223565b905082815260208101848484011115613f4a57613f4961573e565b5b613f5584828561552a565b509392505050565b600081359050613f6c81615c31565b92915050565b600082601f830112613f8757613f86615734565b5b8135613f97848260208601613ddb565b91505092915050565b600082601f830112613fb557613fb4615734565b5b8135613fc5848260208601613e69565b91505092915050565b600081359050613fdd81615c48565b92915050565b600081519050613ff281615c48565b92915050565b60008135905061400781615c5f565b92915050565b60008151905061401c81615c5f565b92915050565b600082601f83011261403757614036615734565b5b8135614047848260208601613ed9565b91505092915050565b60008135905061405f81615c76565b92915050565b600082601f83011261407a57614079615734565b5b813561408a848260208601613f1b565b91505092915050565b6000813590506140a281615c8d565b92915050565b6000602082840312156140be576140bd615748565b5b60006140cc84828501613f5d565b91505092915050565b600080604083850312156140ec576140eb615748565b5b60006140fa85828601613f5d565b925050602061410b85828601613f5d565b9150509250929050565b60008060006060848603121561412e5761412d615748565b5b600061413c86828701613f5d565b935050602061414d86828701613f5d565b925050604061415e86828701614093565b9150509250925092565b6000806000806080858703121561418257614181615748565b5b600061419087828801613f5d565b94505060206141a187828801613f5d565b93505060406141b287828801614093565b925050606085013567ffffffffffffffff8111156141d3576141d2615743565b5b6141df87828801614022565b91505092959194509250565b6000806040838503121561420257614201615748565b5b600061421085828601613f5d565b925050602061422185828601613fce565b9150509250929050565b6000806040838503121561424257614241615748565b5b600061425085828601613f5d565b925050602061426185828601614093565b9150509250929050565b600080600080600060a0868803121561428757614286615748565b5b600086013567ffffffffffffffff8111156142a5576142a4615743565b5b6142b188828901613f72565b955050602086013567ffffffffffffffff8111156142d2576142d1615743565b5b6142de88828901613f72565b945050604086013567ffffffffffffffff8111156142ff576142fe615743565b5b61430b88828901613fa0565b935050606086013567ffffffffffffffff81111561432c5761432b615743565b5b61433888828901613fa0565b925050608086013567ffffffffffffffff81111561435957614358615743565b5b61436588828901613fa0565b9150509295509295909350565b60008060008060008060c0878903121561438f5761438e615748565b5b600087013567ffffffffffffffff8111156143ad576143ac615743565b5b6143b989828a01613f72565b965050602087013567ffffffffffffffff8111156143da576143d9615743565b5b6143e689828a01613f72565b955050604087013567ffffffffffffffff81111561440757614406615743565b5b61441389828a01613fa0565b945050606087013567ffffffffffffffff81111561443457614433615743565b5b61444089828a01613fa0565b935050608087013567ffffffffffffffff81111561446157614460615743565b5b61446d89828a01613fa0565b92505060a087013567ffffffffffffffff81111561448e5761448d615743565b5b61449a89828a01613fa0565b9150509295509295509295565b6000602082840312156144bd576144bc615748565b5b60006144cb84828501613fe3565b91505092915050565b6000602082840312156144ea576144e9615748565b5b60006144f884828501613ff8565b91505092915050565b60006020828403121561451757614516615748565b5b60006145258482850161400d565b91505092915050565b6000806040838503121561454557614544615748565b5b600061455385828601614050565b925050602061456485828601614093565b9150509250929050565b60006020828403121561458457614583615748565b5b600061459284828501614093565b91505092915050565b60006145a78383614a5a565b905092915050565b6145b8816154a4565b82525050565b60006145c982615312565b6145d38185615340565b9350836020820285016145e585615302565b8060005b858110156146215784840389528151614602858261459b565b945061460d83615333565b925060208a019950506001810190506145e9565b50829750879550505050505092915050565b61463c816154b6565b82525050565b600061464d8261531d565b6146578185615351565b9350614667818560208601615539565b6146708161574d565b840191505092915050565b600061468682615328565b6146908185615362565b93506146a0818560208601615539565b6146a98161574d565b840191505092915050565b60006146bf82615328565b6146c98185615373565b93506146d9818560208601615539565b6146e28161574d565b840191505092915050565b60006146f882615328565b6147028185615384565b9350614712818560208601615539565b80840191505092915050565b600061472b600b83615384565b91506147368261575e565b600b82019050919050565b600061474e603283615373565b915061475982615787565b604082019050919050565b6000614771602583615373565b915061477c826157d6565b604082019050919050565b6000614794601c83615373565b915061479f82615825565b602082019050919050565b60006147b7600e83615384565b91506147c28261584e565b600e82019050919050565b60006147da602483615373565b91506147e582615877565b604082019050919050565b60006147fd601983615373565b9150614808826158c6565b602082019050919050565b6000614820602983615373565b915061482b826158ef565b604082019050919050565b6000614843606283615384565b915061484e8261593e565b606282019050919050565b6000614866600483615384565b9150614871826159d9565b600482019050919050565b6000614889603e83615373565b915061489482615a02565b604082019050919050565b60006148ac602083615373565b91506148b782615a51565b602082019050919050565b60006148cf600a83615384565b91506148da82615a7a565b600a82019050919050565b60006148f2601883615373565b91506148fd82615aa3565b602082019050919050565b6000614915602183615373565b915061492082615acc565b604082019050919050565b6000614938601d83615384565b915061494382615b1b565b601d82019050919050565b600061495b603d83615384565b915061496682615b44565b603d82019050919050565b600061497e602d83615384565b915061498982615b93565b602d82019050919050565b60006149a1602e83615373565b91506149ac82615be2565b604082019050919050565b600060e0830160008301516149cf6000860182614c46565b50602083015184820360208601526149e7828261467b565b91505060408301518482036040860152614a01828261467b565b9150506060830151614a166060860182614c46565b506080830151614a296080860182614c46565b5060a0830151614a3c60a0860182614c46565b5060c0830151614a4f60c0860182614c46565b508091505092915050565b600061016083016000830151614a736000860182614c46565b5060208301518482036020860152614a8b828261467b565b91505060408301518482036040860152614aa5828261467b565b9150506060830151614aba6060860182614c46565b506080830151614acd6080860182614c46565b5060a0830151614ae060a0860182614c46565b5060c0830151614af360c0860182614c46565b5060e0830151614b0660e0860182614c46565b50610100830151614b1b610100860182614c46565b50610120830151614b30610120860182614c46565b50610140830151614b45610140860182614c46565b508091505092915050565b600061016083016000830151614b696000860182614c46565b5060208301518482036020860152614b81828261467b565b91505060408301518482036040860152614b9b828261467b565b9150506060830151614bb06060860182614c46565b506080830151614bc36080860182614c46565b5060a0830151614bd660a0860182614c46565b5060c0830151614be960c0860182614c46565b5060e0830151614bfc60e0860182614c46565b50610100830151614c11610100860182614c46565b50610120830151614c26610120860182614c46565b50610140830151614c3b610140860182614c46565b508091505092915050565b614c4f81615520565b82525050565b614c5e81615520565b82525050565b6000614c6f826148c2565b9150614c7b82896146ed565b9150614c868261471e565b9150614c9282886146ed565b9150614c9d82614836565b9150614ca982876146ed565b9150614cb48261494e565b9150614cc082866146ed565b9150614ccb826147aa565b9150614cd782856146ed565b9150614ce282614971565b9150614cee82846146ed565b9150614cf982614859565b9150819050979650505050505050565b6000614d148261492b565b9150614d2082846146ed565b915081905092915050565b6000602082019050614d4060008301846145af565b92915050565b6000608082019050614d5b60008301876145af565b614d6860208301866145af565b614d756040830185614c55565b8181036060830152614d878184614642565b905095945050505050565b6000604082019050614da760008301856145af565b614db46020830184614c55565b9392505050565b6000606082019050614dd060008301866145af565b614ddd6020830185614c55565b614dea6040830184614c55565b949350505050565b60006020820190508181036000830152614e0c81846145be565b905092915050565b6000602082019050614e296000830184614633565b92915050565b60006020820190508181036000830152614e4981846146b4565b905092915050565b60006080820190508181036000830152614e6b81876146b4565b90508181036020830152614e7f81866146b4565b9050614e8e6040830185614c55565b8181036060830152614ea081846146b4565b905095945050505050565b60006080820190508181036000830152614ec581876146b4565b90508181036020830152614ed981866146b4565b9050614ee86040830185614c55565b614ef56060830184614c55565b95945050505050565b60006040820190508181036000830152614f1881856146b4565b9050614f276020830184614c55565b9392505050565b60006020820190508181036000830152614f4781614741565b9050919050565b60006020820190508181036000830152614f6781614764565b9050919050565b60006020820190508181036000830152614f8781614787565b9050919050565b60006020820190508181036000830152614fa7816147cd565b9050919050565b60006020820190508181036000830152614fc7816147f0565b9050919050565b60006020820190508181036000830152614fe781614813565b9050919050565b600060208201905081810360008301526150078161487c565b9050919050565b600060208201905081810360008301526150278161489f565b9050919050565b60006020820190508181036000830152615047816148e5565b9050919050565b6000602082019050818103600083015261506781614908565b9050919050565b6000602082019050818103600083015261508781614994565b9050919050565b600060208201905081810360008301526150a881846149b7565b905092915050565b600060208201905081810360008301526150ca8184614b50565b905092915050565b60006020820190506150e76000830184614c55565b92915050565b600060e082019050615102600083018a614c55565b818103602083015261511481896146b4565b9050818103604083015261512881886146b4565b90506151376060830187614c55565b6151446080830186614c55565b61515160a0830185614c55565b61515e60c0830184614c55565b98975050505050505050565b600061016082019050615180600083018e614c55565b8181036020830152615192818d6146b4565b905081810360408301526151a6818c6146b4565b90506151b5606083018b614c55565b6151c2608083018a614c55565b6151cf60a0830189614c55565b6151dc60c0830188614c55565b6151e960e0830187614c55565b6151f7610100830186614c55565b615205610120830185614c55565b615213610140830184614c55565b9c9b505050505050505050505050565b600061522d61523e565b9050615239828261559e565b919050565b6000604051905090565b600067ffffffffffffffff82111561526357615262615705565b5b602082029050602081019050919050565b600067ffffffffffffffff82111561528f5761528e615705565b5b602082029050602081019050919050565b600067ffffffffffffffff8211156152bb576152ba615705565b5b6152c48261574d565b9050602081019050919050565b600067ffffffffffffffff8211156152ec576152eb615705565b5b6152f58261574d565b9050602081019050919050565b6000819050602082019050919050565b600081519050919050565b600081519050919050565b600081519050919050565b6000602082019050919050565b600082825260208201905092915050565b600082825260208201905092915050565b600082825260208201905092915050565b600082825260208201905092915050565b600081905092915050565b600061539a82615520565b91506153a583615520565b9250827fffffffffffffffffffffffffffffffffffffffffffffffffffffffffffffffff038211156153da576153d9615649565b5b828201905092915050565b60006153f082615520565b91506153fb83615520565b92508261540b5761540a615678565b5b828204905092915050565b600061542182615520565b915061542c83615520565b9250817fffffffffffffffffffffffffffffffffffffffffffffffffffffffffffffffff048311821515161561546557615464615649565b5b828202905092915050565b600061547b82615520565b915061548683615520565b92508282101561549957615498615649565b5b828203905092915050565b60006154af82615500565b9050919050565b60008115159050919050565b60007fffffffff0000000000000000000000000000000000000000000000000000000082169050919050565b60006154f9826154a4565b9050919050565b600073ffffffffffffffffffffffffffffffffffffffff82169050919050565b6000819050919050565b82818337600083830152505050565b60005b8381101561555757808201518184015260208101905061553c565b83811115615566576000848401525b50505050565b6000600282049050600182168061558457607f821691505b60208210811415615598576155976156a7565b5b50919050565b6155a78261574d565b810181811067ffffffffffffffff821117156155c6576155c5615705565b5b80604052505050565b60006155da82615520565b91507fffffffffffffffffffffffffffffffffffffffffffffffffffffffffffffffff82141561560d5761560c615649565b5b600182019050919050565b600061562382615520565b915061562e83615520565b92508261563e5761563d615678565b5b828206905092915050565b7f4e487b7100000000000000000000000000000000000000000000000000000000600052601160045260246000fd5b7f4e487b7100000000000000000000000000000000000000000000000000000000600052601260045260246000fd5b7f4e487b7100000000000000000000000000000000000000000000000000000000600052602260045260246000fd5b7f4e487b7100000000000000000000000000000000000000000000000000000000600052603260045260246000fd5b7f4e487b7100000000000000000000000000000000000000000000000000000000600052604160045260246000fd5b600080fd5b600080fd5b600080fd5b600080fd5b600080fd5b6000601f19601f8301169050919050565b7f202d2d204e465420233a20000000000000000000000000000000000000000000600082015250565b7f4552433732313a207472616e7366657220746f206e6f6e20455243373231526560008201527f63656976657220696d706c656d656e7465720000000000000000000000000000602082015250565b7f4552433732313a207472616e736665722066726f6d20696e636f72726563742060008201527f6f776e6572000000000000000000000000000000000000000000000000000000602082015250565b7f4552433732313a20746f6b656e20616c7265616479206d696e74656400000000600082015250565b7f2c20226d61785f76616c7565223a000000000000000000000000000000000000600082015250565b7f4552433732313a207472616e7366657220746f20746865207a65726f2061646460008201527f7265737300000000000000000000000000000000000000000000000000000000602082015250565b7f4552433732313a20617070726f766520746f2063616c6c657200000000000000600082015250565b7f4552433732313a2061646472657373207a65726f206973206e6f74206120766160008201527f6c6964206f776e65720000000000000000000000000000000000000000000000602082015250565b7f222c20226465736372697074696f6e223a20225468697320697320616e204e4660008201527f542074686174206c6574732070656f706c6520706c617920696e20746865206760208201527f616d65204d657461766572736520536c6179657221222c2022696d616765223a60408201527f2022000000000000000000000000000000000000000000000000000000000000606082015250565b7f7d205d7d00000000000000000000000000000000000000000000000000000000600082015250565b7f4552433732313a20617070726f76652063616c6c6572206973206e6f7420746f60008201527f6b656e206f776e6572206e6f7220617070726f76656420666f7220616c6c0000602082015250565b7f4552433732313a206d696e7420746f20746865207a65726f2061646472657373600082015250565b7f7b226e616d65223a202200000000000000000000000000000000000000000000600082015250565b7f4552433732313a20696e76616c696420746f6b656e2049440000000000000000600082015250565b7f4552433732313a20617070726f76616c20746f2063757272656e74206f776e6560008201527f7200000000000000000000000000000000000000000000000000000000000000602082015250565b7f646174613a6170706c69636174696f6e2f6a736f6e3b6261736536342c000000600082015250565b7f222c202261747472696275746573223a205b207b202274726169745f7479706560008201527f223a20224865616c746820506f696e7473222c202276616c7565223a20000000602082015250565b7f7d2c207b202274726169745f74797065223a202241747461636b2044616d616760008201527f65222c202276616c7565223a2000000000000000000000000000000000000000602082015250565b7f4552433732313a2063616c6c6572206973206e6f7420746f6b656e206f776e6560008201527f72206e6f7220617070726f766564000000000000000000000000000000000000602082015250565b615c3a816154a4565b8114615c4557600080fd5b50565b615c51816154b6565b8114615c5c57600080fd5b50565b615c68816154c2565b8114615c7357600080fd5b50565b615c7f816154ee565b8114615c8a57600080fd5b50565b615c9681615520565b8114615ca157600080fd5b5056fe506c617965722061747461636b656420626f73732e204e657720626f73732068703a2025732e446f6e6520696e697469616c697a696e6720257320772f20485020257320616e6420696e646578202573446f6e6520696e697469616c697a696e6720257320772f2048502025732c20696d672025734142434445464748494a4b4c4d4e4f505152535455565758595a6162636465666768696a6b6c6d6e6f707172737475767778797a303132333435363738392b2f426f73732061747461636b656420706c617965722e204e657720706c617965722068703a2025730aa2646970667358221220d06098a82adbe18cede2c419250c08bb858d1edf85f3107b19a33b13f493178a64736f6c63430008070033",
  "devdoc": {
    "kind": "dev",
    "methods": {
      "approve(address,uint256)": {
        "details": "See {IERC721-approve}."
      },
      "balanceOf(address)": {
        "details": "See {IERC721-balanceOf}."
      },
      "getApproved(uint256)": {
        "details": "See {IERC721-getApproved}."
      },
      "isApprovedForAll(address,address)": {
        "details": "See {IERC721-isApprovedForAll}."
      },
      "name()": {
        "details": "See {IERC721Metadata-name}."
      },
      "ownerOf(uint256)": {
        "details": "See {IERC721-ownerOf}."
      },
      "safeTransferFrom(address,address,uint256)": {
        "details": "See {IERC721-safeTransferFrom}."
      },
      "safeTransferFrom(address,address,uint256,bytes)": {
        "details": "See {IERC721-safeTransferFrom}."
      },
      "setApprovalForAll(address,bool)": {
        "details": "See {IERC721-setApprovalForAll}."
      },
      "supportsInterface(bytes4)": {
        "details": "See {IERC165-supportsInterface}."
      },
      "symbol()": {
        "details": "See {IERC721Metadata-symbol}."
      },
      "transferFrom(address,address,uint256)": {
        "details": "See {IERC721-transferFrom}."
      }
    },
    "version": 1
  },
  "userdoc": {
    "kind": "user",
    "methods": {},
    "version": 1
  },
  "storageLayout": {
    "storage": [
      {
        "astId": 179,
        "contract": "contracts/MyEpicGame.sol:MyEpicGame",
        "label": "_name",
        "offset": 0,
        "slot": "0",
        "type": "t_string_storage"
      },
      {
        "astId": 181,
        "contract": "contracts/MyEpicGame.sol:MyEpicGame",
        "label": "_symbol",
        "offset": 0,
        "slot": "1",
        "type": "t_string_storage"
      },
      {
        "astId": 185,
        "contract": "contracts/MyEpicGame.sol:MyEpicGame",
        "label": "_owners",
        "offset": 0,
        "slot": "2",
        "type": "t_mapping(t_uint256,t_address)"
      },
      {
        "astId": 189,
        "contract": "contracts/MyEpicGame.sol:MyEpicGame",
        "label": "_balances",
        "offset": 0,
        "slot": "3",
        "type": "t_mapping(t_address,t_uint256)"
      },
      {
        "astId": 193,
        "contract": "contracts/MyEpicGame.sol:MyEpicGame",
        "label": "_tokenApprovals",
        "offset": 0,
        "slot": "4",
        "type": "t_mapping(t_uint256,t_address)"
      },
      {
        "astId": 199,
        "contract": "contracts/MyEpicGame.sol:MyEpicGame",
        "label": "_operatorApprovals",
        "offset": 0,
        "slot": "5",
        "type": "t_mapping(t_address,t_mapping(t_address,t_bool))"
      },
      {
        "astId": 2062,
        "contract": "contracts/MyEpicGame.sol:MyEpicGame",
        "label": "_tokenIds",
        "offset": 0,
        "slot": "6",
        "type": "t_struct(Counter)1504_storage"
      },
      {
        "astId": 2066,
        "contract": "contracts/MyEpicGame.sol:MyEpicGame",
        "label": "defaultCharacters",
        "offset": 0,
        "slot": "7",
        "type": "t_array(t_struct(CharacterAttributes)2040_storage)dyn_storage"
      },
      {
        "astId": 2070,
        "contract": "contracts/MyEpicGame.sol:MyEpicGame",
        "label": "defaultBosses",
        "offset": 0,
        "slot": "8",
        "type": "t_array(t_struct(BossAttributes)2055_storage)dyn_storage"
      },
      {
        "astId": 2072,
        "contract": "contracts/MyEpicGame.sol:MyEpicGame",
        "label": "owner",
        "offset": 0,
        "slot": "9",
        "type": "t_address"
      },
      {
        "astId": 2074,
        "contract": "contracts/MyEpicGame.sol:MyEpicGame",
        "label": "s_maxLevel",
        "offset": 0,
        "slot": "10",
        "type": "t_uint256"
      },
      {
        "astId": 2079,
        "contract": "contracts/MyEpicGame.sol:MyEpicGame",
        "label": "nftHolderAttributes",
        "offset": 0,
        "slot": "11",
        "type": "t_mapping(t_uint256,t_struct(CharacterAttributes)2040_storage)"
      },
      {
        "astId": 2084,
        "contract": "contracts/MyEpicGame.sol:MyEpicGame",
        "label": "bossAttributes",
        "offset": 0,
        "slot": "12",
        "type": "t_mapping(t_uint256,t_struct(BossAttributes)2055_storage)"
      },
      {
        "astId": 2088,
        "contract": "contracts/MyEpicGame.sol:MyEpicGame",
        "label": "nftHolders",
        "offset": 0,
        "slot": "13",
        "type": "t_mapping(t_address,t_uint256)"
      }
    ],
    "types": {
      "t_address": {
        "encoding": "inplace",
        "label": "address",
        "numberOfBytes": "20"
      },
      "t_array(t_struct(BossAttributes)2055_storage)dyn_storage": {
        "base": "t_struct(BossAttributes)2055_storage",
        "encoding": "dynamic_array",
        "label": "struct MyEpicGame.BossAttributes[]",
        "numberOfBytes": "32"
      },
      "t_array(t_struct(CharacterAttributes)2040_storage)dyn_storage": {
        "base": "t_struct(CharacterAttributes)2040_storage",
        "encoding": "dynamic_array",
        "label": "struct MyEpicGame.CharacterAttributes[]",
        "numberOfBytes": "32"
      },
      "t_bool": {
        "encoding": "inplace",
        "label": "bool",
        "numberOfBytes": "1"
      },
      "t_mapping(t_address,t_bool)": {
        "encoding": "mapping",
        "key": "t_address",
        "label": "mapping(address => bool)",
        "numberOfBytes": "32",
        "value": "t_bool"
      },
      "t_mapping(t_address,t_mapping(t_address,t_bool))": {
        "encoding": "mapping",
        "key": "t_address",
        "label": "mapping(address => mapping(address => bool))",
        "numberOfBytes": "32",
        "value": "t_mapping(t_address,t_bool)"
      },
      "t_mapping(t_address,t_uint256)": {
        "encoding": "mapping",
        "key": "t_address",
        "label": "mapping(address => uint256)",
        "numberOfBytes": "32",
        "value": "t_uint256"
      },
      "t_mapping(t_uint256,t_address)": {
        "encoding": "mapping",
        "key": "t_uint256",
        "label": "mapping(uint256 => address)",
        "numberOfBytes": "32",
        "value": "t_address"
      },
      "t_mapping(t_uint256,t_struct(BossAttributes)2055_storage)": {
        "encoding": "mapping",
        "key": "t_uint256",
        "label": "mapping(uint256 => struct MyEpicGame.BossAttributes)",
        "numberOfBytes": "32",
        "value": "t_struct(BossAttributes)2055_storage"
      },
      "t_mapping(t_uint256,t_struct(CharacterAttributes)2040_storage)": {
        "encoding": "mapping",
        "key": "t_uint256",
        "label": "mapping(uint256 => struct MyEpicGame.CharacterAttributes)",
        "numberOfBytes": "32",
        "value": "t_struct(CharacterAttributes)2040_storage"
      },
      "t_string_storage": {
        "encoding": "bytes",
        "label": "string",
        "numberOfBytes": "32"
      },
      "t_struct(BossAttributes)2055_storage": {
        "encoding": "inplace",
        "label": "struct MyEpicGame.BossAttributes",
        "members": [
          {
            "astId": 2042,
            "contract": "contracts/MyEpicGame.sol:MyEpicGame",
            "label": "bossIndex",
            "offset": 0,
            "slot": "0",
            "type": "t_uint256"
          },
          {
            "astId": 2044,
            "contract": "contracts/MyEpicGame.sol:MyEpicGame",
            "label": "name",
            "offset": 0,
            "slot": "1",
            "type": "t_string_storage"
          },
          {
            "astId": 2046,
            "contract": "contracts/MyEpicGame.sol:MyEpicGame",
            "label": "imageURI",
            "offset": 0,
            "slot": "2",
            "type": "t_string_storage"
          },
          {
            "astId": 2048,
            "contract": "contracts/MyEpicGame.sol:MyEpicGame",
            "label": "hp",
            "offset": 0,
            "slot": "3",
            "type": "t_uint256"
          },
          {
            "astId": 2050,
            "contract": "contracts/MyEpicGame.sol:MyEpicGame",
            "label": "maxHp",
            "offset": 0,
            "slot": "4",
            "type": "t_uint256"
          },
          {
            "astId": 2052,
            "contract": "contracts/MyEpicGame.sol:MyEpicGame",
            "label": "attackDamage",
            "offset": 0,
            "slot": "5",
            "type": "t_uint256"
          },
          {
            "astId": 2054,
            "contract": "contracts/MyEpicGame.sol:MyEpicGame",
            "label": "bossExp",
            "offset": 0,
            "slot": "6",
            "type": "t_uint256"
          }
        ],
        "numberOfBytes": "224"
      },
      "t_struct(CharacterAttributes)2040_storage": {
        "encoding": "inplace",
        "label": "struct MyEpicGame.CharacterAttributes",
        "members": [
          {
            "astId": 2019,
            "contract": "contracts/MyEpicGame.sol:MyEpicGame",
            "label": "characterIndex",
            "offset": 0,
            "slot": "0",
            "type": "t_uint256"
          },
          {
            "astId": 2021,
            "contract": "contracts/MyEpicGame.sol:MyEpicGame",
            "label": "name",
            "offset": 0,
            "slot": "1",
            "type": "t_string_storage"
          },
          {
            "astId": 2023,
            "contract": "contracts/MyEpicGame.sol:MyEpicGame",
            "label": "imageURI",
            "offset": 0,
            "slot": "2",
            "type": "t_string_storage"
          },
          {
            "astId": 2025,
            "contract": "contracts/MyEpicGame.sol:MyEpicGame",
            "label": "level",
            "offset": 0,
            "slot": "3",
            "type": "t_uint256"
          },
          {
            "astId": 2027,
            "contract": "contracts/MyEpicGame.sol:MyEpicGame",
            "label": "exp",
            "offset": 0,
            "slot": "4",
            "type": "t_uint256"
          },
          {
            "astId": 2029,
            "contract": "contracts/MyEpicGame.sol:MyEpicGame",
            "label": "maxExp",
            "offset": 0,
            "slot": "5",
            "type": "t_uint256"
          },
          {
            "astId": 2031,
            "contract": "contracts/MyEpicGame.sol:MyEpicGame",
            "label": "hp",
            "offset": 0,
            "slot": "6",
            "type": "t_uint256"
          },
          {
            "astId": 2033,
            "contract": "contracts/MyEpicGame.sol:MyEpicGame",
            "label": "maxHp",
            "offset": 0,
            "slot": "7",
            "type": "t_uint256"
          },
          {
            "astId": 2035,
            "contract": "contracts/MyEpicGame.sol:MyEpicGame",
            "label": "attackDamage",
            "offset": 0,
            "slot": "8",
            "type": "t_uint256"
          },
          {
            "astId": 2037,
            "contract": "contracts/MyEpicGame.sol:MyEpicGame",
            "label": "dexterity",
            "offset": 0,
            "slot": "9",
            "type": "t_uint256"
          },
          {
            "astId": 2039,
            "contract": "contracts/MyEpicGame.sol:MyEpicGame",
            "label": "luck",
            "offset": 0,
            "slot": "10",
            "type": "t_uint256"
          }
        ],
        "numberOfBytes": "352"
      },
      "t_struct(Counter)1504_storage": {
        "encoding": "inplace",
        "label": "struct Counters.Counter",
        "members": [
          {
            "astId": 1503,
            "contract": "contracts/MyEpicGame.sol:MyEpicGame",
            "label": "_value",
            "offset": 0,
            "slot": "0",
            "type": "t_uint256"
          }
        ],
        "numberOfBytes": "32"
      },
      "t_uint256": {
        "encoding": "inplace",
        "label": "uint256",
        "numberOfBytes": "32"
      }
    }
  }
}