{
  "address": "0xe7f1725E7734CE288F8367e1Bb143E90bb3F0512",
  "abi": [
    {
      "inputs": [],
      "stateMutability": "nonpayable",
      "type": "constructor"
    },
    {
      "inputs": [],
      "name": "MyEpicGame__BossHPEqualsToZero",
      "type": "error"
    },
    {
      "inputs": [],
      "name": "MyEpicGame__CharacterHPEqualsToZero",
      "type": "error"
    },
    {
      "anonymous": false,
      "inputs": [
        {
          "indexed": true,
          "internalType": "address",
          "name": "owner",
          "type": "address"
        },
        {
          "indexed": true,
          "internalType": "address",
          "name": "approved",
          "type": "address"
        },
        {
          "indexed": true,
          "internalType": "uint256",
          "name": "tokenId",
          "type": "uint256"
        }
      ],
      "name": "Approval",
      "type": "event"
    },
    {
      "anonymous": false,
      "inputs": [
        {
          "indexed": true,
          "internalType": "address",
          "name": "owner",
          "type": "address"
        },
        {
          "indexed": true,
          "internalType": "address",
          "name": "operator",
          "type": "address"
        },
        {
          "indexed": false,
          "internalType": "bool",
          "name": "approved",
          "type": "bool"
        }
      ],
      "name": "ApprovalForAll",
      "type": "event"
    },
    {
      "anonymous": false,
      "inputs": [
        {
          "indexed": false,
          "internalType": "address",
          "name": "sender",
          "type": "address"
        },
        {
          "indexed": false,
          "internalType": "uint256",
          "name": "newBossHp",
          "type": "uint256"
        },
        {
          "indexed": false,
          "internalType": "uint256",
          "name": "newCharacterHp",
          "type": "uint256"
        }
      ],
      "name": "AttackComplete",
      "type": "event"
    },
    {
      "anonymous": false,
      "inputs": [
        {
          "indexed": false,
          "internalType": "address",
          "name": "sender",
          "type": "address"
        }
      ],
      "name": "BossKilled",
      "type": "event"
    },
    {
      "anonymous": false,
      "inputs": [
        {
          "indexed": false,
          "internalType": "address",
          "name": "sender",
          "type": "address"
        },
        {
          "indexed": false,
          "internalType": "uint256",
          "name": "tokenId",
          "type": "uint256"
        },
        {
          "indexed": false,
          "internalType": "uint256",
          "name": "characterIndex",
          "type": "uint256"
        }
      ],
      "name": "CharacterNFTMinted",
      "type": "event"
    },
    {
      "anonymous": false,
      "inputs": [
        {
          "indexed": true,
          "internalType": "address",
          "name": "from",
          "type": "address"
        },
        {
          "indexed": true,
          "internalType": "address",
          "name": "to",
          "type": "address"
        },
        {
          "indexed": true,
          "internalType": "uint256",
          "name": "tokenId",
          "type": "uint256"
        }
      ],
      "name": "Transfer",
      "type": "event"
    },
    {
      "inputs": [
        {
          "internalType": "address",
          "name": "to",
          "type": "address"
        },
        {
          "internalType": "uint256",
          "name": "tokenId",
          "type": "uint256"
        }
      ],
      "name": "approve",
      "outputs": [],
      "stateMutability": "nonpayable",
      "type": "function"
    },
    {
      "inputs": [
        {
          "internalType": "contract GameEngine",
          "name": "_contract",
          "type": "address"
        },
        {
          "internalType": "uint256",
          "name": "bossIndex",
          "type": "uint256"
        }
      ],
      "name": "attackBoss",
      "outputs": [],
      "stateMutability": "nonpayable",
      "type": "function"
    },
    {
      "inputs": [
        {
          "internalType": "address",
          "name": "owner",
          "type": "address"
        }
      ],
      "name": "balanceOf",
      "outputs": [
        {
          "internalType": "uint256",
          "name": "",
          "type": "uint256"
        }
      ],
      "stateMutability": "view",
      "type": "function"
    },
    {
      "inputs": [
        {
          "internalType": "uint256",
          "name": "",
          "type": "uint256"
        }
      ],
      "name": "bossAttributes",
      "outputs": [
        {
          "internalType": "uint256",
          "name": "bossIndex",
          "type": "uint256"
        },
        {
          "internalType": "string",
          "name": "name",
          "type": "string"
        },
        {
          "internalType": "string",
          "name": "imageURI",
          "type": "string"
        },
        {
          "internalType": "uint256",
          "name": "hp",
          "type": "uint256"
        },
        {
          "internalType": "uint256",
          "name": "maxHp",
          "type": "uint256"
        },
        {
          "internalType": "uint256",
          "name": "attackDamage",
          "type": "uint256"
        },
        {
          "internalType": "uint256",
          "name": "bossExp",
          "type": "uint256"
        }
      ],
      "stateMutability": "view",
      "type": "function"
    },
    {
      "inputs": [],
      "name": "checkIfUserHasNFT",
      "outputs": [
        {
          "components": [
            {
              "internalType": "uint256",
              "name": "characterIndex",
              "type": "uint256"
            },
            {
              "internalType": "string",
              "name": "name",
              "type": "string"
            },
            {
              "internalType": "string",
              "name": "imageURI",
              "type": "string"
            },
            {
              "internalType": "uint256",
              "name": "level",
              "type": "uint256"
            },
            {
              "internalType": "uint256",
              "name": "exp",
              "type": "uint256"
            },
            {
              "internalType": "uint256",
              "name": "maxExp",
              "type": "uint256"
            },
            {
              "internalType": "uint256",
              "name": "hp",
              "type": "uint256"
            },
            {
              "internalType": "uint256",
              "name": "maxHp",
              "type": "uint256"
            },
            {
              "internalType": "uint256",
              "name": "attackDamage",
              "type": "uint256"
            },
            {
              "internalType": "uint256",
              "name": "dexterity",
              "type": "uint256"
            },
            {
              "internalType": "uint256",
              "name": "luck",
              "type": "uint256"
            }
          ],
          "internalType": "struct MyEpicGame.CharacterAttributes",
          "name": "",
          "type": "tuple"
        }
      ],
      "stateMutability": "view",
      "type": "function"
    },
    {
      "inputs": [
        {
          "internalType": "string[]",
          "name": "bossName",
          "type": "string[]"
        },
        {
          "internalType": "string[]",
          "name": "bossImageURI",
          "type": "string[]"
        },
        {
          "internalType": "uint256[]",
          "name": "bossHp",
          "type": "uint256[]"
        },
        {
          "internalType": "uint256[]",
          "name": "bossAttackDamage",
          "type": "uint256[]"
        },
        {
          "internalType": "uint256[]",
          "name": "bossExp",
          "type": "uint256[]"
        }
      ],
      "name": "createBosses",
      "outputs": [],
      "stateMutability": "nonpayable",
      "type": "function"
    },
    {
      "inputs": [
        {
          "internalType": "string[]",
          "name": "characterNames",
          "type": "string[]"
        },
        {
          "internalType": "string[]",
          "name": "characterImageURIs",
          "type": "string[]"
        },
        {
          "internalType": "uint256[]",
          "name": "characterHp",
          "type": "uint256[]"
        },
        {
          "internalType": "uint256[]",
          "name": "characterAttackDmg",
          "type": "uint256[]"
        },
        {
          "internalType": "uint256[]",
          "name": "characterDexterity",
          "type": "uint256[]"
        },
        {
          "internalType": "uint256[]",
          "name": "characterLuck",
          "type": "uint256[]"
        }
      ],
      "name": "createCharacters",
      "outputs": [],
      "stateMutability": "nonpayable",
      "type": "function"
    },
    {
      "inputs": [],
      "name": "getAllDefaultCharacters",
      "outputs": [
        {
          "components": [
            {
              "internalType": "uint256",
              "name": "characterIndex",
              "type": "uint256"
            },
            {
              "internalType": "string",
              "name": "name",
              "type": "string"
            },
            {
              "internalType": "string",
              "name": "imageURI",
              "type": "string"
            },
            {
              "internalType": "uint256",
              "name": "level",
              "type": "uint256"
            },
            {
              "internalType": "uint256",
              "name": "exp",
              "type": "uint256"
            },
            {
              "internalType": "uint256",
              "name": "maxExp",
              "type": "uint256"
            },
            {
              "internalType": "uint256",
              "name": "hp",
              "type": "uint256"
            },
            {
              "internalType": "uint256",
              "name": "maxHp",
              "type": "uint256"
            },
            {
              "internalType": "uint256",
              "name": "attackDamage",
              "type": "uint256"
            },
            {
              "internalType": "uint256",
              "name": "dexterity",
              "type": "uint256"
            },
            {
              "internalType": "uint256",
              "name": "luck",
              "type": "uint256"
            }
          ],
          "internalType": "struct MyEpicGame.CharacterAttributes[]",
          "name": "",
          "type": "tuple[]"
        }
      ],
      "stateMutability": "view",
      "type": "function"
    },
    {
      "inputs": [
        {
          "internalType": "uint256",
          "name": "tokenId",
          "type": "uint256"
        }
      ],
      "name": "getApproved",
      "outputs": [
        {
          "internalType": "address",
          "name": "",
          "type": "address"
        }
      ],
      "stateMutability": "view",
      "type": "function"
    },
    {
      "inputs": [
        {
          "internalType": "uint256",
          "name": "bossIndex",
          "type": "uint256"
        }
      ],
      "name": "getBossAttributes",
      "outputs": [
        {
          "components": [
            {
              "internalType": "uint256",
              "name": "bossIndex",
              "type": "uint256"
            },
            {
              "internalType": "string",
              "name": "name",
              "type": "string"
            },
            {
              "internalType": "string",
              "name": "imageURI",
              "type": "string"
            },
            {
              "internalType": "uint256",
              "name": "hp",
              "type": "uint256"
            },
            {
              "internalType": "uint256",
              "name": "maxHp",
              "type": "uint256"
            },
            {
              "internalType": "uint256",
              "name": "attackDamage",
              "type": "uint256"
            },
            {
              "internalType": "uint256",
              "name": "bossExp",
              "type": "uint256"
            }
          ],
          "internalType": "struct MyEpicGame.BossAttributes",
          "name": "",
          "type": "tuple"
        }
      ],
      "stateMutability": "view",
      "type": "function"
    },
    {
      "inputs": [
        {
          "internalType": "uint256",
          "name": "characterIndex",
          "type": "uint256"
        }
      ],
      "name": "getCharacterAttributes",
      "outputs": [
        {
          "components": [
            {
              "internalType": "uint256",
              "name": "characterIndex",
              "type": "uint256"
            },
            {
              "internalType": "string",
              "name": "name",
              "type": "string"
            },
            {
              "internalType": "string",
              "name": "imageURI",
              "type": "string"
            },
            {
              "internalType": "uint256",
              "name": "level",
              "type": "uint256"
            },
            {
              "internalType": "uint256",
              "name": "exp",
              "type": "uint256"
            },
            {
              "internalType": "uint256",
              "name": "maxExp",
              "type": "uint256"
            },
            {
              "internalType": "uint256",
              "name": "hp",
              "type": "uint256"
            },
            {
              "internalType": "uint256",
              "name": "maxHp",
              "type": "uint256"
            },
            {
              "internalType": "uint256",
              "name": "attackDamage",
              "type": "uint256"
            },
            {
              "internalType": "uint256",
              "name": "dexterity",
              "type": "uint256"
            },
            {
              "internalType": "uint256",
              "name": "luck",
              "type": "uint256"
            }
          ],
          "internalType": "struct MyEpicGame.CharacterAttributes",
          "name": "",
          "type": "tuple"
        }
      ],
      "stateMutability": "view",
      "type": "function"
    },
    {
      "inputs": [
        {
          "internalType": "uint256",
          "name": "news_maxLevel",
          "type": "uint256"
        }
      ],
      "name": "incrementsMaxLevel",
      "outputs": [],
      "stateMutability": "nonpayable",
      "type": "function"
    },
    {
      "inputs": [
        {
          "internalType": "address",
          "name": "owner",
          "type": "address"
        },
        {
          "internalType": "address",
          "name": "operator",
          "type": "address"
        }
      ],
      "name": "isApprovedForAll",
      "outputs": [
        {
          "internalType": "bool",
          "name": "",
          "type": "bool"
        }
      ],
      "stateMutability": "view",
      "type": "function"
    },
    {
      "inputs": [
        {
          "internalType": "uint256",
          "name": "_characterIndex",
          "type": "uint256"
        }
      ],
      "name": "mintCharacterNFT",
      "outputs": [],
      "stateMutability": "nonpayable",
      "type": "function"
    },
    {
      "inputs": [],
      "name": "name",
      "outputs": [
        {
          "internalType": "string",
          "name": "",
          "type": "string"
        }
      ],
      "stateMutability": "view",
      "type": "function"
    },
    {
      "inputs": [
        {
          "internalType": "uint256",
          "name": "",
          "type": "uint256"
        }
      ],
      "name": "nftHolderAttributes",
      "outputs": [
        {
          "internalType": "uint256",
          "name": "characterIndex",
          "type": "uint256"
        },
        {
          "internalType": "string",
          "name": "name",
          "type": "string"
        },
        {
          "internalType": "string",
          "name": "imageURI",
          "type": "string"
        },
        {
          "internalType": "uint256",
          "name": "level",
          "type": "uint256"
        },
        {
          "internalType": "uint256",
          "name": "exp",
          "type": "uint256"
        },
        {
          "internalType": "uint256",
          "name": "maxExp",
          "type": "uint256"
        },
        {
          "internalType": "uint256",
          "name": "hp",
          "type": "uint256"
        },
        {
          "internalType": "uint256",
          "name": "maxHp",
          "type": "uint256"
        },
        {
          "internalType": "uint256",
          "name": "attackDamage",
          "type": "uint256"
        },
        {
          "internalType": "uint256",
          "name": "dexterity",
          "type": "uint256"
        },
        {
          "internalType": "uint256",
          "name": "luck",
          "type": "uint256"
        }
      ],
      "stateMutability": "view",
      "type": "function"
    },
    {
      "inputs": [
        {
          "internalType": "address",
          "name": "",
          "type": "address"
        }
      ],
      "name": "nftHolders",
      "outputs": [
        {
          "internalType": "uint256",
          "name": "",
          "type": "uint256"
        }
      ],
      "stateMutability": "view",
      "type": "function"
    },
    {
      "inputs": [
        {
          "internalType": "uint256",
          "name": "tokenId",
          "type": "uint256"
        }
      ],
      "name": "ownerOf",
      "outputs": [
        {
          "internalType": "address",
          "name": "",
          "type": "address"
        }
      ],
      "stateMutability": "view",
      "type": "function"
    },
    {
      "inputs": [
        {
          "internalType": "address",
          "name": "from",
          "type": "address"
        },
        {
          "internalType": "address",
          "name": "to",
          "type": "address"
        },
        {
          "internalType": "uint256",
          "name": "tokenId",
          "type": "uint256"
        }
      ],
      "name": "safeTransferFrom",
      "outputs": [],
      "stateMutability": "nonpayable",
      "type": "function"
    },
    {
      "inputs": [
        {
          "internalType": "address",
          "name": "from",
          "type": "address"
        },
        {
          "internalType": "address",
          "name": "to",
          "type": "address"
        },
        {
          "internalType": "uint256",
          "name": "tokenId",
          "type": "uint256"
        },
        {
          "internalType": "bytes",
          "name": "data",
          "type": "bytes"
        }
      ],
      "name": "safeTransferFrom",
      "outputs": [],
      "stateMutability": "nonpayable",
      "type": "function"
    },
    {
      "inputs": [
        {
          "internalType": "address",
          "name": "operator",
          "type": "address"
        },
        {
          "internalType": "bool",
          "name": "approved",
          "type": "bool"
        }
      ],
      "name": "setApprovalForAll",
      "outputs": [],
      "stateMutability": "nonpayable",
      "type": "function"
    },
    {
      "inputs": [
        {
          "internalType": "bytes4",
          "name": "interfaceId",
          "type": "bytes4"
        }
      ],
      "name": "supportsInterface",
      "outputs": [
        {
          "internalType": "bool",
          "name": "",
          "type": "bool"
        }
      ],
      "stateMutability": "view",
      "type": "function"
    },
    {
      "inputs": [],
      "name": "symbol",
      "outputs": [
        {
          "internalType": "string",
          "name": "",
          "type": "string"
        }
      ],
      "stateMutability": "view",
      "type": "function"
    },
    {
      "inputs": [
        {
          "internalType": "uint256",
          "name": "_tokenId",
          "type": "uint256"
        }
      ],
      "name": "tokenURI",
      "outputs": [
        {
          "internalType": "string",
          "name": "",
          "type": "string"
        }
      ],
      "stateMutability": "view",
      "type": "function"
    },
    {
      "inputs": [
        {
          "internalType": "address",
          "name": "from",
          "type": "address"
        },
        {
          "internalType": "address",
          "name": "to",
          "type": "address"
        },
        {
          "internalType": "uint256",
          "name": "tokenId",
          "type": "uint256"
        }
      ],
      "name": "transferFrom",
      "outputs": [],
      "stateMutability": "nonpayable",
      "type": "function"
    }
  ],
  "transactionHash": "0x531a069ad29054758e290bdd4f478577a98fc3c41e22107d008b3707f962270b",
  "args": [],
  "numDeployments": 1,
  "solcInputHash": "ff208b2d84c66cb87728b57fede432a9",
  "bytecode": "0x60806040523480156200001157600080fd5b506040518060400160405280600681526020017f4865726f657300000000000000000000000000000000000000000000000000008152506040518060400160405280600481526020017f4845524f000000000000000000000000000000000000000000000000000000008152508160009080519060200190620000969291906200012e565b508060019080519060200190620000af9291906200012e565b50505033600960006101000a81548173ffffffffffffffffffffffffffffffffffffffff021916908373ffffffffffffffffffffffffffffffffffffffff1602179055506014600a819055506200011260066200011860201b620029561760201c565b62000243565b6001816000016000828254019250508190555050565b8280546200013c90620001de565b90600052602060002090601f016020900481019282620001605760008555620001ac565b82601f106200017b57805160ff1916838001178555620001ac565b82800160010185558215620001ac579182015b82811115620001ab5782518255916020019190600101906200018e565b5b509050620001bb9190620001bf565b5090565b5b80821115620001da576000816000905550600101620001c0565b5090565b60006002820490506001821680620001f757607f821691505b602082108114156200020e576200020d62000214565b5b50919050565b7f4e487b7100000000000000000000000000000000000000000000000000000000600052602260045260246000fd5b615d5480620002536000396000f3fe608060405234801561001057600080fd5b50600436106101735760003560e01c806398da4c95116100de578063c87b56dd11610097578063dbdd55fd11610071578063dbdd55fd1461048a578063e985e9c5146104a6578063f8b81ef7146104d6578063fbbdb93d146104f257610173565b8063c87b56dd1461040c578063c8cf27f41461043c578063d0e60cff1461045a57610173565b806398da4c9514610330578063a22cb4651461036a578063a81f840b14610386578063b88d4fde146103b6578063b953084e146103d2578063c2f3dad0146103f057610173565b80632e0891ce116101305780632e0891ce1461024a57806342842e0e146102665780636352211e1461028257806370a08231146102b25780637df124a1146102e257806395d89b411461031257610173565b806301ffc9a7146101785780630682ebb8146101a857806306fdde03146101c4578063081812fc146101e2578063095ea7b31461021257806323b872dd1461022e575b600080fd5b610192600480360381019061018d9190614471565b610528565b60405161019f9190614db1565b60405180910390f35b6101c260048036038101906101bd91906144cb565b61060a565b005b6101cc610b01565b6040516101d99190614dcc565b60405180910390f35b6101fc60048036038101906101f7919061450b565b610b93565b6040516102099190614cc8565b60405180910390f35b61022c600480360381019061022791906141c8565b610bd9565b005b610248600480360381019061024391906140b2565b610cf1565b005b610264600480360381019061025f919061450b565b610d51565b005b610280600480360381019061027b91906140b2565b610db5565b005b61029c6004803603810190610297919061450b565b610dd5565b6040516102a99190614cc8565b60405180910390f35b6102cc60048036038101906102c79190614045565b610e87565b6040516102d9919061506f565b60405180910390f35b6102fc60048036038101906102f79190614045565b610f3f565b604051610309919061506f565b60405180910390f35b61031a610f57565b6040516103279190614dcc565b60405180910390f35b61034a6004803603810190610345919061450b565b610fe9565b6040516103619b9a99989796959493929190615107565b60405180910390f35b610384600480360381019061037f9190614188565b611153565b005b6103a0600480360381019061039b919061450b565b611169565b6040516103ad919061502b565b60405180910390f35b6103d060048036038101906103cb9190614105565b6112fb565b005b6103da61135d565b6040516103e79190614d8f565b60405180910390f35b61040a60048036038101906104059190614208565b61153b565b005b6104266004803603810190610421919061450b565b6118f3565b6040516104339190614dcc565b60405180910390f35b610444611b3c565b604051610451919061504d565b60405180910390f35b610474600480360381019061046f919061450b565b611d46565b604051610481919061504d565b60405180910390f35b6104a4600480360381019061049f919061430f565b611f01565b005b6104c060048036038101906104bb9190614072565b612350565b6040516104cd9190614db1565b60405180910390f35b6104f060048036038101906104eb919061450b565b6123e4565b005b61050c6004803603810190610507919061450b565b612804565b60405161051f979695949392919061508a565b60405180910390f35b60007f80ac58cd000000000000000000000000000000000000000000000000000000007bffffffffffffffffffffffffffffffffffffffffffffffffffffffff1916827bffffffffffffffffffffffffffffffffffffffffffffffffffffffff191614806105f357507f5b5e139f000000000000000000000000000000000000000000000000000000007bffffffffffffffffffffffffffffffffffffffffffffffffffffffff1916827bffffffffffffffffffffffffffffffffffffffffffffffffffffffff1916145b8061060357506106028261296c565b5b9050919050565b6000600d60003373ffffffffffffffffffffffffffffffffffffffff1673ffffffffffffffffffffffffffffffffffffffff1681526020019081526020016000205490506000600b6000838152602001908152602001600020905060006008848154811061067b5761067a615673565b5b906000526020600020906007020190506000826006015410156106ca576040517fb78decec00000000000000000000000000000000000000000000000000000000815260040160405180910390fd5b600081600301541015610709576040517fff1d93a100000000000000000000000000000000000000000000000000000000815260040160405180910390fd5b8473ffffffffffffffffffffffffffffffffffffffff1663cdae62946040518163ffffffff1660e01b8152600401600060405180830381600087803b15801561075157600080fd5b505af1158015610765573d6000803e3d6000fd5b505050508160080154816003015410156107885760008160030181905550610868565b8473ffffffffffffffffffffffffffffffffffffffff16637660d02a3384600a01546040518363ffffffff1660e01b81526004016107c7929190614d2f565b60206040518083038186803b1580156107df57600080fd5b505afa1580156107f3573d6000803e3d6000fd5b505050506040513d601f19601f820116820180604052508101906108179190614444565b15610848576002826008015461082d91906153b3565b816003016000828254610840919061540d565b925050819055505b8160080154816003016000828254610860919061540d565b925050819055505b8473ffffffffffffffffffffffffffffffffffffffff1663cdae62946040518163ffffffff1660e01b8152600401600060405180830381600087803b1580156108b057600080fd5b505af11580156108c4573d6000803e3d6000fd5b505050508473ffffffffffffffffffffffffffffffffffffffff16637660d02a3384600901546040518363ffffffff1660e01b8152600401610907929190614d2f565b60206040518083038186803b15801561091f57600080fd5b505afa158015610933573d6000803e3d6000fd5b505050506040513d601f19601f820116820180604052508101906109579190614444565b1561099f5761099a6040518060400160405280600e81526020017f41747461636b20646f64676564210000000000000000000000000000000000008152506129d6565b6109dc565b8060050154826006015410156109be57600082600601819055506109db565b806005015482600601546109d2919061540d565b82600601819055505b5b7f32bd565ee3f2cb5ddd742bbecd6048d3e9abe90b3827a40c2b72d232e71e3c9d3382600301548460060154604051610a1793929190614d58565b60405180910390a1610a45604051806060016040528060268152602001615c42602691398260030154612a6f565b610a6b604051806060016040528060288152602001615cf7602891398360060154612a6f565b600081600301541415610afa57610ab66040518060400160405280600d81526020017f426f7373206973206465616421000000000000000000000000000000000000008152506129d6565b610ac38160060154612b0b565b7e42b019bb8a8d9b770124d5307b958fd53cd267809c7fc55b95425d26056e4c33604051610af19190614cc8565b60405180910390a15b5050505050565b606060008054610b1090615509565b80601f0160208091040260200160405190810160405280929190818152602001828054610b3c90615509565b8015610b895780601f10610b5e57610100808354040283529160200191610b89565b820191906000526020600020905b815481529060010190602001808311610b6c57829003601f168201915b5050505050905090565b6000610b9e82612d76565b6004600083815260200190815260200160002060009054906101000a900473ffffffffffffffffffffffffffffffffffffffff169050919050565b6000610be482610dd5565b90508073ffffffffffffffffffffffffffffffffffffffff168373ffffffffffffffffffffffffffffffffffffffff161415610c55576040517f08c379a0000000000000000000000000000000000000000000000000000000008152600401610c4c90614feb565b60405180910390fd5b8073ffffffffffffffffffffffffffffffffffffffff16610c74612dc1565b73ffffffffffffffffffffffffffffffffffffffff161480610ca35750610ca281610c9d612dc1565b612350565b5b610ce2576040517f08c379a0000000000000000000000000000000000000000000000000000000008152600401610cd990614f8b565b60405180910390fd5b610cec8383612dc9565b505050565b610d02610cfc612dc1565b82612e82565b610d41576040517f08c379a0000000000000000000000000000000000000000000000000000000008152600401610d389061500b565b60405180910390fd5b610d4c838383612f17565b505050565b600960009054906101000a900473ffffffffffffffffffffffffffffffffffffffff1673ffffffffffffffffffffffffffffffffffffffff163373ffffffffffffffffffffffffffffffffffffffff1614610dab57600080fd5b80600a8190555050565b610dd0838383604051806020016040528060008152506112fb565b505050565b6000806002600084815260200190815260200160002060009054906101000a900473ffffffffffffffffffffffffffffffffffffffff169050600073ffffffffffffffffffffffffffffffffffffffff168173ffffffffffffffffffffffffffffffffffffffff161415610e7e576040517f08c379a0000000000000000000000000000000000000000000000000000000008152600401610e7590614fcb565b60405180910390fd5b80915050919050565b60008073ffffffffffffffffffffffffffffffffffffffff168273ffffffffffffffffffffffffffffffffffffffff161415610ef8576040517f08c379a0000000000000000000000000000000000000000000000000000000008152600401610eef90614f6b565b60405180910390fd5b600360008373ffffffffffffffffffffffffffffffffffffffff1673ffffffffffffffffffffffffffffffffffffffff168152602001908152602001600020549050919050565b600d6020528060005260406000206000915090505481565b606060018054610f6690615509565b80601f0160208091040260200160405190810160405280929190818152602001828054610f9290615509565b8015610fdf5780601f10610fb457610100808354040283529160200191610fdf565b820191906000526020600020905b815481529060010190602001808311610fc257829003601f168201915b5050505050905090565b600b60205280600052604060002060009150905080600001549080600101805461101290615509565b80601f016020809104026020016040519081016040528092919081815260200182805461103e90615509565b801561108b5780601f106110605761010080835404028352916020019161108b565b820191906000526020600020905b81548152906001019060200180831161106e57829003601f168201915b5050505050908060020180546110a090615509565b80601f01602080910402602001604051908101604052809291908181526020018280546110cc90615509565b80156111195780601f106110ee57610100808354040283529160200191611119565b820191906000526020600020905b8154815290600101906020018083116110fc57829003601f168201915b50505050509080600301549080600401549080600501549080600601549080600701549080600801549080600901549080600a015490508b565b61116561115e612dc1565b838361317e565b5050565b611171613c3e565b6008828154811061118557611184615673565b5b90600052602060002090600702016040518060e0016040529081600082015481526020016001820180546111b890615509565b80601f01602080910402602001604051908101604052809291908181526020018280546111e490615509565b80156112315780601f1061120657610100808354040283529160200191611231565b820191906000526020600020905b81548152906001019060200180831161121457829003601f168201915b5050505050815260200160028201805461124a90615509565b80601f016020809104026020016040519081016040528092919081815260200182805461127690615509565b80156112c35780601f10611298576101008083540402835291602001916112c3565b820191906000526020600020905b8154815290600101906020018083116112a657829003601f168201915b505050505081526020016003820154815260200160048201548152602001600582015481526020016006820154815250509050919050565b61130c611306612dc1565b83612e82565b61134b576040517f08c379a00000000000000000000000000000000000000000000000000000000081526004016113429061500b565b60405180910390fd5b611357848484846132eb565b50505050565b60606007805480602002602001604051908101604052809291908181526020016000905b8282101561153257838290600052602060002090600b020160405180610160016040529081600082015481526020016001820180546113bf90615509565b80601f01602080910402602001604051908101604052809291908181526020018280546113eb90615509565b80156114385780601f1061140d57610100808354040283529160200191611438565b820191906000526020600020905b81548152906001019060200180831161141b57829003601f168201915b5050505050815260200160028201805461145190615509565b80601f016020809104026020016040519081016040528092919081815260200182805461147d90615509565b80156114ca5780601f1061149f576101008083540402835291602001916114ca565b820191906000526020600020905b8154815290600101906020018083116114ad57829003601f168201915b5050505050815260200160038201548152602001600482015481526020016005820154815260200160068201548152602001600782015481526020016008820154815260200160098201548152602001600a8201548152505081526020019060010190611381565b50505050905090565b600960009054906101000a900473ffffffffffffffffffffffffffffffffffffffff1673ffffffffffffffffffffffffffffffffffffffff163373ffffffffffffffffffffffffffffffffffffffff161461159557600080fd5b6000600880549050905060005b86518110156118ea5760086040518060e0016040528084846115c4919061532c565b81526020018984815181106115dc576115db615673565b5b602002602001015181526020018884815181106115fc576115fb615673565b5b6020026020010151815260200187848151811061161c5761161b615673565b5b6020026020010151815260200187848151811061163c5761163b615673565b5b6020026020010151815260200186848151811061165c5761165b615673565b5b6020026020010151815260200185848151811061167c5761167b615673565b5b602002602001015181525090806001815401808255809150506001900390600052602060002090600702016000909190919091506000820151816000015560208201518160010190805190602001906116d6929190613c7b565b5060408201518160020190805190602001906116f3929190613c7b565b50606082015181600301556080820151816004015560a0820151816005015560c08201518160060155505060006008828154811061173457611733615673565b5b90600052602060002090600702016040518060e00160405290816000820154815260200160018201805461176790615509565b80601f016020809104026020016040519081016040528092919081815260200182805461179390615509565b80156117e05780601f106117b5576101008083540402835291602001916117e0565b820191906000526020600020905b8154815290600101906020018083116117c357829003601f168201915b505050505081526020016002820180546117f990615509565b80601f016020809104026020016040519081016040528092919081815260200182805461182590615509565b80156118725780601f1061184757610100808354040283529160200191611872565b820191906000526020600020905b81548152906001019060200180831161185557829003601f168201915b5050505050815260200160038201548152602001600482015481526020016005820154815260200160068201548152505090506118d5604051806060016040528060258152602001615c9260259139826020015183606001518460400151613347565b506001816118e3919061532c565b90506115a2565b50505050505050565b60606000600b6000848152602001908152602001600020604051806101600160405290816000820154815260200160018201805461193090615509565b80601f016020809104026020016040519081016040528092919081815260200182805461195c90615509565b80156119a95780601f1061197e576101008083540402835291602001916119a9565b820191906000526020600020905b81548152906001019060200180831161198c57829003601f168201915b505050505081526020016002820180546119c290615509565b80601f01602080910402602001604051908101604052809291908181526020018280546119ee90615509565b8015611a3b5780601f10611a1057610100808354040283529160200191611a3b565b820191906000526020600020905b815481529060010190602001808311611a1e57829003601f168201915b5050505050815260200160038201548152602001600482015481526020016005820154815260200160068201548152602001600782015481526020016008820154815260200160098201548152602001600a8201548152505090506000611aa58260c001516133e9565b90506000611ab68360e001516133e9565b90506000611ac88461010001516133e9565b90506000611b0e8560200151611add896133e9565b8760400151878787604051602001611afa96959493929190614c01565b60405160208183030381529060405261354a565b905080604051602001611b219190614ca6565b60405160208183030381529060405295505050505050919050565b611b44613d01565b6000600d60003373ffffffffffffffffffffffffffffffffffffffff1673ffffffffffffffffffffffffffffffffffffffff16815260200190815260200160002054905060008114611d3557600b60008281526020019081526020016000206040518061016001604052908160008201548152602001600182018054611bc990615509565b80601f0160208091040260200160405190810160405280929190818152602001828054611bf590615509565b8015611c425780601f10611c1757610100808354040283529160200191611c42565b820191906000526020600020905b815481529060010190602001808311611c2557829003601f168201915b50505050508152602001600282018054611c5b90615509565b80601f0160208091040260200160405190810160405280929190818152602001828054611c8790615509565b8015611cd45780601f10611ca957610100808354040283529160200191611cd4565b820191906000526020600020905b815481529060010190602001808311611cb757829003601f168201915b5050505050815260200160038201548152602001600482015481526020016005820154815260200160068201548152602001600782015481526020016008820154815260200160098201548152602001600a82015481525050915050611d43565b611d3d613d01565b80925050505b90565b611d4e613d01565b60078281548110611d6257611d61615673565b5b90600052602060002090600b02016040518061016001604052908160008201548152602001600182018054611d9690615509565b80601f0160208091040260200160405190810160405280929190818152602001828054611dc290615509565b8015611e0f5780601f10611de457610100808354040283529160200191611e0f565b820191906000526020600020905b815481529060010190602001808311611df257829003601f168201915b50505050508152602001600282018054611e2890615509565b80601f0160208091040260200160405190810160405280929190818152602001828054611e5490615509565b8015611ea15780601f10611e7657610100808354040283529160200191611ea1565b820191906000526020600020905b815481529060010190602001808311611e8457829003601f168201915b5050505050815260200160038201548152602001600482015481526020016005820154815260200160068201548152602001600782015481526020016008820154815260200160098201548152602001600a820154815250509050919050565b600960009054906101000a900473ffffffffffffffffffffffffffffffffffffffff1673ffffffffffffffffffffffffffffffffffffffff163373ffffffffffffffffffffffffffffffffffffffff1614611f5b57600080fd5b6000600780549050905060005b87518110156123465760076040518061016001604052808484611f8b919061532c565b81526020018a8481518110611fa357611fa2615673565b5b60200260200101518152602001898481518110611fc357611fc2615673565b5b6020026020010151815260200160018152602001600081526020016103e88152602001888481518110611ff957611ff8615673565b5b6020026020010151815260200188848151811061201957612018615673565b5b6020026020010151815260200187848151811061203957612038615673565b5b6020026020010151815260200186848151811061205957612058615673565b5b6020026020010151815260200185848151811061207957612078615673565b5b602002602001015181525090806001815401808255809150506001900390600052602060002090600b02016000909190919091506000820151816000015560208201518160010190805190602001906120d3929190613c7b565b5060408201518160020190805190602001906120f0929190613c7b565b50606082015181600301556080820151816004015560a0820151816005015560c0820151816006015560e082015181600701556101008201518160080155610120820151816009015561014082015181600a01555050600060078383612156919061532c565b8154811061216757612166615673565b5b90600052602060002090600b0201604051806101600160405290816000820154815260200160018201805461219b90615509565b80601f01602080910402602001604051908101604052809291908181526020018280546121c790615509565b80156122145780601f106121e957610100808354040283529160200191612214565b820191906000526020600020905b8154815290600101906020018083116121f757829003601f168201915b5050505050815260200160028201805461222d90615509565b80601f016020809104026020016040519081016040528092919081815260200182805461225990615509565b80156122a65780601f1061227b576101008083540402835291602001916122a6565b820191906000526020600020905b81548152906001019060200180831161228957829003601f168201915b5050505050815260200160038201548152602001600482015481526020016005820154815260200160068201548152602001600782015481526020016008820154815260200160098201548152602001600a8201548152505090506123316040518060600160405280602a8152602001615c68602a913982602001518360c0015184600001516136e2565b5060018161233f919061532c565b9050611f68565b5050505050505050565b6000600560008473ffffffffffffffffffffffffffffffffffffffff1673ffffffffffffffffffffffffffffffffffffffff16815260200190815260200160002060008373ffffffffffffffffffffffffffffffffffffffff1673ffffffffffffffffffffffffffffffffffffffff16815260200190815260200160002060009054906101000a900460ff16905092915050565b60006123f06006613784565b90506123fc3382613792565b6040518061016001604052808381526020016007848154811061242257612421615673565b5b90600052602060002090600b0201600101805461243e90615509565b80601f016020809104026020016040519081016040528092919081815260200182805461246a90615509565b80156124b75780601f1061248c576101008083540402835291602001916124b7565b820191906000526020600020905b81548152906001019060200180831161249a57829003601f168201915b50505050508152602001600784815481106124d5576124d4615673565b5b90600052602060002090600b020160020180546124f190615509565b80601f016020809104026020016040519081016040528092919081815260200182805461251d90615509565b801561256a5780601f1061253f5761010080835404028352916020019161256a565b820191906000526020600020905b81548152906001019060200180831161254d57829003601f168201915b505050505081526020016007848154811061258857612587615673565b5b90600052602060002090600b0201600301548152602001600784815481106125b3576125b2615673565b5b90600052602060002090600b0201600401548152602001600784815481106125de576125dd615673565b5b90600052602060002090600b02016005015481526020016007848154811061260957612608615673565b5b90600052602060002090600b02016006015481526020016007848154811061263457612633615673565b5b90600052602060002090600b02016007015481526020016007848154811061265f5761265e615673565b5b90600052602060002090600b02016008015481526020016007848154811061268a57612689615673565b5b90600052602060002090600b0201600901548152602001600784815481106126b5576126b4615673565b5b90600052602060002090600b0201600a0154815250600b6000838152602001908152602001600020600082015181600001556020820151816001019080519060200190612703929190613c7b565b506040820151816002019080519060200190612720929190613c7b565b50606082015181600301556080820151816004015560a0820151816005015560c0820151816006015560e082015181600701556101008201518160080155610120820151816009015561014082015181600a015590505080600d60003373ffffffffffffffffffffffffffffffffffffffff1673ffffffffffffffffffffffffffffffffffffffff168152602001908152602001600020819055506127c56006612956565b7f4bc303fd457a97b4691b9af582ce71868a3d258638c8d4f8c60988a0f0bfb8cd3382846040516127f893929190614d58565b60405180910390a15050565b600c60205280600052604060002060009150905080600001549080600101805461282d90615509565b80601f016020809104026020016040519081016040528092919081815260200182805461285990615509565b80156128a65780601f1061287b576101008083540402835291602001916128a6565b820191906000526020600020905b81548152906001019060200180831161288957829003601f168201915b5050505050908060020180546128bb90615509565b80601f01602080910402602001604051908101604052809291908181526020018280546128e790615509565b80156129345780601f1061290957610100808354040283529160200191612934565b820191906000526020600020905b81548152906001019060200180831161291757829003601f168201915b5050505050908060030154908060040154908060050154908060060154905087565b6001816000016000828254019250508190555050565b60007f01ffc9a7000000000000000000000000000000000000000000000000000000007bffffffffffffffffffffffffffffffffffffffffffffffffffffffff1916827bffffffffffffffffffffffffffffffffffffffffffffffffffffffff1916149050919050565b612a6c816040516024016129ea9190614dcc565b6040516020818303038152906040527f41304fac000000000000000000000000000000000000000000000000000000007bffffffffffffffffffffffffffffffffffffffffffffffffffffffff19166020820180517bffffffffffffffffffffffffffffffffffffffffffffffffffffffff83818316178352505050506137b0565b50565b612b078282604051602401612a85929190614e9b565b6040516020818303038152906040527f9710a9d0000000000000000000000000000000000000000000000000000000007bffffffffffffffffffffffffffffffffffffffffffffffffffffffff19166020820180517bffffffffffffffffffffffffffffffffffffffffffffffffffffffff83818316178352505050506137b0565b5050565b6000600d60003373ffffffffffffffffffffffffffffffffffffffff1673ffffffffffffffffffffffffffffffffffffffff1681526020019081526020016000205490506000600b6000838152602001908152602001600020905082816004016000828254612b7a919061532c565b925050819055505b8060050154816004015410612c6957600a548160030154148015612bae57508060050154816004015410155b15612c035780600501548160040181905550612bfe6040518060400160405280601481526020017f506c61796572206973206d6178206c6576656c210000000000000000000000008152506129d6565b612c69565b8060050154816004016000828254612c1b919061540d565b925050819055506001816003016000828254612c37919061532c565b9250508190555060028160050154612c4f91906153b3565b816005018190555080600701548160060181905550612b82565b612cac6040518060400160405280600d81526020017f4e6577206c6576656c3a202573000000000000000000000000000000000000008152508260030154612a6f565b612ceb6040518060400160405280601181526020017f426f73732078702061646465643a20257300000000000000000000000000000081525084612a6f565b612d2e6040518060400160405280600b81526020017f4e6577206578703a2025730000000000000000000000000000000000000000008152508260040154612a6f565b612d716040518060400160405280600e81526020017f4e6577206d61784578703a2025730000000000000000000000000000000000008152508260050154612a6f565b505050565b612d7f816137d9565b612dbe576040517f08c379a0000000000000000000000000000000000000000000000000000000008152600401612db590614fcb565b60405180910390fd5b50565b600033905090565b816004600083815260200190815260200160002060006101000a81548173ffffffffffffffffffffffffffffffffffffffff021916908373ffffffffffffffffffffffffffffffffffffffff160217905550808273ffffffffffffffffffffffffffffffffffffffff16612e3c83610dd5565b73ffffffffffffffffffffffffffffffffffffffff167f8c5be1e5ebec7d5bd14f71427d1e84f3dd0314c0f7b2291e5b200ac8c7c3b92560405160405180910390a45050565b600080612e8e83610dd5565b90508073ffffffffffffffffffffffffffffffffffffffff168473ffffffffffffffffffffffffffffffffffffffff161480612ed05750612ecf8185612350565b5b80612f0e57508373ffffffffffffffffffffffffffffffffffffffff16612ef684610b93565b73ffffffffffffffffffffffffffffffffffffffff16145b91505092915050565b8273ffffffffffffffffffffffffffffffffffffffff16612f3782610dd5565b73ffffffffffffffffffffffffffffffffffffffff1614612f8d576040517f08c379a0000000000000000000000000000000000000000000000000000000008152600401612f8490614eeb565b60405180910390fd5b600073ffffffffffffffffffffffffffffffffffffffff168273ffffffffffffffffffffffffffffffffffffffff161415612ffd576040517f08c379a0000000000000000000000000000000000000000000000000000000008152600401612ff490614f2b565b60405180910390fd5b613008838383613845565b613013600082612dc9565b6001600360008573ffffffffffffffffffffffffffffffffffffffff1673ffffffffffffffffffffffffffffffffffffffff1681526020019081526020016000206000828254613063919061540d565b925050819055506001600360008473ffffffffffffffffffffffffffffffffffffffff1673ffffffffffffffffffffffffffffffffffffffff16815260200190815260200160002060008282546130ba919061532c565b92505081905550816002600083815260200190815260200160002060006101000a81548173ffffffffffffffffffffffffffffffffffffffff021916908373ffffffffffffffffffffffffffffffffffffffff160217905550808273ffffffffffffffffffffffffffffffffffffffff168473ffffffffffffffffffffffffffffffffffffffff167fddf252ad1be2c89b69c2b068fc378daa952ba7f163c4a11628f55a4df523b3ef60405160405180910390a461317983838361384a565b505050565b8173ffffffffffffffffffffffffffffffffffffffff168373ffffffffffffffffffffffffffffffffffffffff1614156131ed576040517f08c379a00000000000000000000000000000000000000000000000000000000081526004016131e490614f4b565b60405180910390fd5b80600560008573ffffffffffffffffffffffffffffffffffffffff1673ffffffffffffffffffffffffffffffffffffffff16815260200190815260200160002060008473ffffffffffffffffffffffffffffffffffffffff1673ffffffffffffffffffffffffffffffffffffffff16815260200190815260200160002060006101000a81548160ff0219169083151502179055508173ffffffffffffffffffffffffffffffffffffffff168373ffffffffffffffffffffffffffffffffffffffff167f17307eab39ab6107e8899845ad3d59bd9653f200f220920489ca2b5937696c31836040516132de9190614db1565b60405180910390a3505050565b6132f6848484612f17565b6133028484848461384f565b613341576040517f08c379a000000000000000000000000000000000000000000000000000000000815260040161333890614ecb565b60405180910390fd5b50505050565b6133e3848484846040516024016133619493929190614dee565b6040516020818303038152906040527f8d142cdd000000000000000000000000000000000000000000000000000000007bffffffffffffffffffffffffffffffffffffffffffffffffffffffff19166020820180517bffffffffffffffffffffffffffffffffffffffffffffffffffffffff83818316178352505050506137b0565b50505050565b60606000821415613431576040518060400160405280600181526020017f30000000000000000000000000000000000000000000000000000000000000008152509050613545565b600082905060005b6000821461346357808061344c9061556c565b915050600a8261345c9190615382565b9150613439565b60008167ffffffffffffffff81111561347f5761347e6156a2565b5b6040519080825280601f01601f1916602001820160405280156134b15781602001600182028036833780820191505090505b5090505b6000851461353e576001826134ca919061540d565b9150600a856134d991906155b5565b60306134e5919061532c565b60f81b8183815181106134fb576134fa615673565b5b60200101907effffffffffffffffffffffffffffffffffffffffffffffffffffffffffffff1916908160001a905350600a856135379190615382565b94506134b5565b8093505050505b919050565b6060600082519050600081141561357357604051806020016040528060008152509150506136dd565b60006003600283613584919061532c565b61358e9190615382565b600461359a91906153b3565b905060006020826135ab919061532c565b67ffffffffffffffff8111156135c4576135c36156a2565b5b6040519080825280601f01601f1916602001820160405280156135f65781602001600182028036833780820191505090505b5090506000604051806060016040528060408152602001615cb7604091399050600181016020830160005b8681101561369a5760038101905062ffffff818a015116603f8160121c168401518060081b905060ff603f83600c1c1686015116810190508060081b905060ff603f8360061c1686015116810190508060081b905060ff603f831686015116810190508060e01b90508084526004840193505050613621565b5060038606600181146136b457600281146136c4576136cf565b613d3d60f01b60028303526136cf565b603d60f81b60018303525b508484525050819450505050505b919050565b61377e848484846040516024016136fc9493929190614e48565b6040516020818303038152906040527fd5cf17d0000000000000000000000000000000000000000000000000000000007bffffffffffffffffffffffffffffffffffffffffffffffffffffffff19166020820180517bffffffffffffffffffffffffffffffffffffffffffffffffffffffff83818316178352505050506137b0565b50505050565b600081600001549050919050565b6137ac8282604051806020016040528060008152506139e6565b5050565b60008151905060006a636f6e736f6c652e6c6f679050602083016000808483855afa5050505050565b60008073ffffffffffffffffffffffffffffffffffffffff166002600084815260200190815260200160002060009054906101000a900473ffffffffffffffffffffffffffffffffffffffff1673ffffffffffffffffffffffffffffffffffffffff1614159050919050565b505050565b505050565b60006138708473ffffffffffffffffffffffffffffffffffffffff16613a41565b156139d9578373ffffffffffffffffffffffffffffffffffffffff1663150b7a02613899612dc1565b8786866040518563ffffffff1660e01b81526004016138bb9493929190614ce3565b602060405180830381600087803b1580156138d557600080fd5b505af192505050801561390657506040513d601f19601f82011682018060405250810190613903919061449e565b60015b613989573d8060008114613936576040519150601f19603f3d011682016040523d82523d6000602084013e61393b565b606091505b50600081511415613981576040517f08c379a000000000000000000000000000000000000000000000000000000000815260040161397890614ecb565b60405180910390fd5b805181602001fd5b63150b7a0260e01b7bffffffffffffffffffffffffffffffffffffffffffffffffffffffff1916817bffffffffffffffffffffffffffffffffffffffffffffffffffffffff1916149150506139de565b600190505b949350505050565b6139f08383613a64565b6139fd600084848461384f565b613a3c576040517f08c379a0000000000000000000000000000000000000000000000000000000008152600401613a3390614ecb565b60405180910390fd5b505050565b6000808273ffffffffffffffffffffffffffffffffffffffff163b119050919050565b600073ffffffffffffffffffffffffffffffffffffffff168273ffffffffffffffffffffffffffffffffffffffff161415613ad4576040517f08c379a0000000000000000000000000000000000000000000000000000000008152600401613acb90614fab565b60405180910390fd5b613add816137d9565b15613b1d576040517f08c379a0000000000000000000000000000000000000000000000000000000008152600401613b1490614f0b565b60405180910390fd5b613b2960008383613845565b6001600360008473ffffffffffffffffffffffffffffffffffffffff1673ffffffffffffffffffffffffffffffffffffffff1681526020019081526020016000206000828254613b79919061532c565b92505081905550816002600083815260200190815260200160002060006101000a81548173ffffffffffffffffffffffffffffffffffffffff021916908373ffffffffffffffffffffffffffffffffffffffff160217905550808273ffffffffffffffffffffffffffffffffffffffff16600073ffffffffffffffffffffffffffffffffffffffff167fddf252ad1be2c89b69c2b068fc378daa952ba7f163c4a11628f55a4df523b3ef60405160405180910390a4613c3a6000838361384a565b5050565b6040518060e00160405280600081526020016060815260200160608152602001600081526020016000815260200160008152602001600081525090565b828054613c8790615509565b90600052602060002090601f016020900481019282613ca95760008555613cf0565b82601f10613cc257805160ff1916838001178555613cf0565b82800160010185558215613cf0579182015b82811115613cef578251825591602001919060010190613cd4565b5b509050613cfd9190613d5b565b5090565b60405180610160016040528060008152602001606081526020016060815260200160008152602001600081526020016000815260200160008152602001600081526020016000815260200160008152602001600081525090565b5b80821115613d74576000816000905550600101613d5c565b5090565b6000613d8b613d86846151e5565b6151c0565b90508083825260208201905082856020860282011115613dae57613dad6156d6565b5b60005b85811015613dfc57813567ffffffffffffffff811115613dd457613dd36156d1565b5b808601613de18982614002565b85526020850194506020840193505050600181019050613db1565b5050509392505050565b6000613e19613e1484615211565b6151c0565b90508083825260208201905082856020860282011115613e3c57613e3b6156d6565b5b60005b85811015613e6c5781613e528882614030565b845260208401935060208301925050600181019050613e3f565b5050509392505050565b6000613e89613e848461523d565b6151c0565b905082815260208101848484011115613ea557613ea46156db565b5b613eb08482856154c7565b509392505050565b6000613ecb613ec68461526e565b6151c0565b905082815260208101848484011115613ee757613ee66156db565b5b613ef28482856154c7565b509392505050565b600081359050613f0981615bce565b92915050565b600082601f830112613f2457613f236156d1565b5b8135613f34848260208601613d78565b91505092915050565b600082601f830112613f5257613f516156d1565b5b8135613f62848260208601613e06565b91505092915050565b600081359050613f7a81615be5565b92915050565b600081519050613f8f81615be5565b92915050565b600081359050613fa481615bfc565b92915050565b600081519050613fb981615bfc565b92915050565b600082601f830112613fd457613fd36156d1565b5b8135613fe4848260208601613e76565b91505092915050565b600081359050613ffc81615c13565b92915050565b600082601f830112614017576140166156d1565b5b8135614027848260208601613eb8565b91505092915050565b60008135905061403f81615c2a565b92915050565b60006020828403121561405b5761405a6156e5565b5b600061406984828501613efa565b91505092915050565b60008060408385031215614089576140886156e5565b5b600061409785828601613efa565b92505060206140a885828601613efa565b9150509250929050565b6000806000606084860312156140cb576140ca6156e5565b5b60006140d986828701613efa565b93505060206140ea86828701613efa565b92505060406140fb86828701614030565b9150509250925092565b6000806000806080858703121561411f5761411e6156e5565b5b600061412d87828801613efa565b945050602061413e87828801613efa565b935050604061414f87828801614030565b925050606085013567ffffffffffffffff8111156141705761416f6156e0565b5b61417c87828801613fbf565b91505092959194509250565b6000806040838503121561419f5761419e6156e5565b5b60006141ad85828601613efa565b92505060206141be85828601613f6b565b9150509250929050565b600080604083850312156141df576141de6156e5565b5b60006141ed85828601613efa565b92505060206141fe85828601614030565b9150509250929050565b600080600080600060a08688031215614224576142236156e5565b5b600086013567ffffffffffffffff811115614242576142416156e0565b5b61424e88828901613f0f565b955050602086013567ffffffffffffffff81111561426f5761426e6156e0565b5b61427b88828901613f0f565b945050604086013567ffffffffffffffff81111561429c5761429b6156e0565b5b6142a888828901613f3d565b935050606086013567ffffffffffffffff8111156142c9576142c86156e0565b5b6142d588828901613f3d565b925050608086013567ffffffffffffffff8111156142f6576142f56156e0565b5b61430288828901613f3d565b9150509295509295909350565b60008060008060008060c0878903121561432c5761432b6156e5565b5b600087013567ffffffffffffffff81111561434a576143496156e0565b5b61435689828a01613f0f565b965050602087013567ffffffffffffffff811115614377576143766156e0565b5b61438389828a01613f0f565b955050604087013567ffffffffffffffff8111156143a4576143a36156e0565b5b6143b089828a01613f3d565b945050606087013567ffffffffffffffff8111156143d1576143d06156e0565b5b6143dd89828a01613f3d565b935050608087013567ffffffffffffffff8111156143fe576143fd6156e0565b5b61440a89828a01613f3d565b92505060a087013567ffffffffffffffff81111561442b5761442a6156e0565b5b61443789828a01613f3d565b9150509295509295509295565b60006020828403121561445a576144596156e5565b5b600061446884828501613f80565b91505092915050565b600060208284031215614487576144866156e5565b5b600061449584828501613f95565b91505092915050565b6000602082840312156144b4576144b36156e5565b5b60006144c284828501613faa565b91505092915050565b600080604083850312156144e2576144e16156e5565b5b60006144f085828601613fed565b925050602061450185828601614030565b9150509250929050565b600060208284031215614521576145206156e5565b5b600061452f84828501614030565b91505092915050565b600061454483836149f7565b905092915050565b61455581615441565b82525050565b6000614566826152af565b61457081856152dd565b9350836020820285016145828561529f565b8060005b858110156145be578484038952815161459f8582614538565b94506145aa836152d0565b925060208a01995050600181019050614586565b50829750879550505050505092915050565b6145d981615453565b82525050565b60006145ea826152ba565b6145f481856152ee565b93506146048185602086016154d6565b61460d816156ea565b840191505092915050565b6000614623826152c5565b61462d81856152ff565b935061463d8185602086016154d6565b614646816156ea565b840191505092915050565b600061465c826152c5565b6146668185615310565b93506146768185602086016154d6565b61467f816156ea565b840191505092915050565b6000614695826152c5565b61469f8185615321565b93506146af8185602086016154d6565b80840191505092915050565b60006146c8600b83615321565b91506146d3826156fb565b600b82019050919050565b60006146eb603283615310565b91506146f682615724565b604082019050919050565b600061470e602583615310565b915061471982615773565b604082019050919050565b6000614731601c83615310565b915061473c826157c2565b602082019050919050565b6000614754600e83615321565b915061475f826157eb565b600e82019050919050565b6000614777602483615310565b915061478282615814565b604082019050919050565b600061479a601983615310565b91506147a582615863565b602082019050919050565b60006147bd602983615310565b91506147c88261588c565b604082019050919050565b60006147e0606283615321565b91506147eb826158db565b606282019050919050565b6000614803600483615321565b915061480e82615976565b600482019050919050565b6000614826603e83615310565b91506148318261599f565b604082019050919050565b6000614849602083615310565b9150614854826159ee565b602082019050919050565b600061486c600a83615321565b915061487782615a17565b600a82019050919050565b600061488f601883615310565b915061489a82615a40565b602082019050919050565b60006148b2602183615310565b91506148bd82615a69565b604082019050919050565b60006148d5601d83615321565b91506148e082615ab8565b601d82019050919050565b60006148f8603d83615321565b915061490382615ae1565b603d82019050919050565b600061491b602d83615321565b915061492682615b30565b602d82019050919050565b600061493e602e83615310565b915061494982615b7f565b604082019050919050565b600060e08301600083015161496c6000860182614be3565b50602083015184820360208601526149848282614618565b9150506040830151848203604086015261499e8282614618565b91505060608301516149b36060860182614be3565b5060808301516149c66080860182614be3565b5060a08301516149d960a0860182614be3565b5060c08301516149ec60c0860182614be3565b508091505092915050565b600061016083016000830151614a106000860182614be3565b5060208301518482036020860152614a288282614618565b91505060408301518482036040860152614a428282614618565b9150506060830151614a576060860182614be3565b506080830151614a6a6080860182614be3565b5060a0830151614a7d60a0860182614be3565b5060c0830151614a9060c0860182614be3565b5060e0830151614aa360e0860182614be3565b50610100830151614ab8610100860182614be3565b50610120830151614acd610120860182614be3565b50610140830151614ae2610140860182614be3565b508091505092915050565b600061016083016000830151614b066000860182614be3565b5060208301518482036020860152614b1e8282614618565b91505060408301518482036040860152614b388282614618565b9150506060830151614b4d6060860182614be3565b506080830151614b606080860182614be3565b5060a0830151614b7360a0860182614be3565b5060c0830151614b8660c0860182614be3565b5060e0830151614b9960e0860182614be3565b50610100830151614bae610100860182614be3565b50610120830151614bc3610120860182614be3565b50610140830151614bd8610140860182614be3565b508091505092915050565b614bec816154bd565b82525050565b614bfb816154bd565b82525050565b6000614c0c8261485f565b9150614c18828961468a565b9150614c23826146bb565b9150614c2f828861468a565b9150614c3a826147d3565b9150614c46828761468a565b9150614c51826148eb565b9150614c5d828661468a565b9150614c6882614747565b9150614c74828561468a565b9150614c7f8261490e565b9150614c8b828461468a565b9150614c96826147f6565b9150819050979650505050505050565b6000614cb1826148c8565b9150614cbd828461468a565b915081905092915050565b6000602082019050614cdd600083018461454c565b92915050565b6000608082019050614cf8600083018761454c565b614d05602083018661454c565b614d126040830185614bf2565b8181036060830152614d2481846145df565b905095945050505050565b6000604082019050614d44600083018561454c565b614d516020830184614bf2565b9392505050565b6000606082019050614d6d600083018661454c565b614d7a6020830185614bf2565b614d876040830184614bf2565b949350505050565b60006020820190508181036000830152614da9818461455b565b905092915050565b6000602082019050614dc660008301846145d0565b92915050565b60006020820190508181036000830152614de68184614651565b905092915050565b60006080820190508181036000830152614e088187614651565b90508181036020830152614e1c8186614651565b9050614e2b6040830185614bf2565b8181036060830152614e3d8184614651565b905095945050505050565b60006080820190508181036000830152614e628187614651565b90508181036020830152614e768186614651565b9050614e856040830185614bf2565b614e926060830184614bf2565b95945050505050565b60006040820190508181036000830152614eb58185614651565b9050614ec46020830184614bf2565b9392505050565b60006020820190508181036000830152614ee4816146de565b9050919050565b60006020820190508181036000830152614f0481614701565b9050919050565b60006020820190508181036000830152614f2481614724565b9050919050565b60006020820190508181036000830152614f448161476a565b9050919050565b60006020820190508181036000830152614f648161478d565b9050919050565b60006020820190508181036000830152614f84816147b0565b9050919050565b60006020820190508181036000830152614fa481614819565b9050919050565b60006020820190508181036000830152614fc48161483c565b9050919050565b60006020820190508181036000830152614fe481614882565b9050919050565b60006020820190508181036000830152615004816148a5565b9050919050565b6000602082019050818103600083015261502481614931565b9050919050565b600060208201905081810360008301526150458184614954565b905092915050565b600060208201905081810360008301526150678184614aed565b905092915050565b60006020820190506150846000830184614bf2565b92915050565b600060e08201905061509f600083018a614bf2565b81810360208301526150b18189614651565b905081810360408301526150c58188614651565b90506150d46060830187614bf2565b6150e16080830186614bf2565b6150ee60a0830185614bf2565b6150fb60c0830184614bf2565b98975050505050505050565b60006101608201905061511d600083018e614bf2565b818103602083015261512f818d614651565b90508181036040830152615143818c614651565b9050615152606083018b614bf2565b61515f608083018a614bf2565b61516c60a0830189614bf2565b61517960c0830188614bf2565b61518660e0830187614bf2565b615194610100830186614bf2565b6151a2610120830185614bf2565b6151b0610140830184614bf2565b9c9b505050505050505050505050565b60006151ca6151db565b90506151d6828261553b565b919050565b6000604051905090565b600067ffffffffffffffff821115615200576151ff6156a2565b5b602082029050602081019050919050565b600067ffffffffffffffff82111561522c5761522b6156a2565b5b602082029050602081019050919050565b600067ffffffffffffffff821115615258576152576156a2565b5b615261826156ea565b9050602081019050919050565b600067ffffffffffffffff821115615289576152886156a2565b5b615292826156ea565b9050602081019050919050565b6000819050602082019050919050565b600081519050919050565b600081519050919050565b600081519050919050565b6000602082019050919050565b600082825260208201905092915050565b600082825260208201905092915050565b600082825260208201905092915050565b600082825260208201905092915050565b600081905092915050565b6000615337826154bd565b9150615342836154bd565b9250827fffffffffffffffffffffffffffffffffffffffffffffffffffffffffffffffff03821115615377576153766155e6565b5b828201905092915050565b600061538d826154bd565b9150615398836154bd565b9250826153a8576153a7615615565b5b828204905092915050565b60006153be826154bd565b91506153c9836154bd565b9250817fffffffffffffffffffffffffffffffffffffffffffffffffffffffffffffffff0483118215151615615402576154016155e6565b5b828202905092915050565b6000615418826154bd565b9150615423836154bd565b925082821015615436576154356155e6565b5b828203905092915050565b600061544c8261549d565b9050919050565b60008115159050919050565b60007fffffffff0000000000000000000000000000000000000000000000000000000082169050919050565b600061549682615441565b9050919050565b600073ffffffffffffffffffffffffffffffffffffffff82169050919050565b6000819050919050565b82818337600083830152505050565b60005b838110156154f45780820151818401526020810190506154d9565b83811115615503576000848401525b50505050565b6000600282049050600182168061552157607f821691505b6020821081141561553557615534615644565b5b50919050565b615544826156ea565b810181811067ffffffffffffffff82111715615563576155626156a2565b5b80604052505050565b6000615577826154bd565b91507fffffffffffffffffffffffffffffffffffffffffffffffffffffffffffffffff8214156155aa576155a96155e6565b5b600182019050919050565b60006155c0826154bd565b91506155cb836154bd565b9250826155db576155da615615565b5b828206905092915050565b7f4e487b7100000000000000000000000000000000000000000000000000000000600052601160045260246000fd5b7f4e487b7100000000000000000000000000000000000000000000000000000000600052601260045260246000fd5b7f4e487b7100000000000000000000000000000000000000000000000000000000600052602260045260246000fd5b7f4e487b7100000000000000000000000000000000000000000000000000000000600052603260045260246000fd5b7f4e487b7100000000000000000000000000000000000000000000000000000000600052604160045260246000fd5b600080fd5b600080fd5b600080fd5b600080fd5b600080fd5b6000601f19601f8301169050919050565b7f202d2d204e465420233a20000000000000000000000000000000000000000000600082015250565b7f4552433732313a207472616e7366657220746f206e6f6e20455243373231526560008201527f63656976657220696d706c656d656e7465720000000000000000000000000000602082015250565b7f4552433732313a207472616e736665722066726f6d20696e636f72726563742060008201527f6f776e6572000000000000000000000000000000000000000000000000000000602082015250565b7f4552433732313a20746f6b656e20616c7265616479206d696e74656400000000600082015250565b7f2c20226d61785f76616c7565223a000000000000000000000000000000000000600082015250565b7f4552433732313a207472616e7366657220746f20746865207a65726f2061646460008201527f7265737300000000000000000000000000000000000000000000000000000000602082015250565b7f4552433732313a20617070726f766520746f2063616c6c657200000000000000600082015250565b7f4552433732313a2061646472657373207a65726f206973206e6f74206120766160008201527f6c6964206f776e65720000000000000000000000000000000000000000000000602082015250565b7f222c20226465736372697074696f6e223a20225468697320697320616e204e4660008201527f542074686174206c6574732070656f706c6520706c617920696e20746865206760208201527f616d65204d657461766572736520536c6179657221222c2022696d616765223a60408201527f2022000000000000000000000000000000000000000000000000000000000000606082015250565b7f7d205d7d00000000000000000000000000000000000000000000000000000000600082015250565b7f4552433732313a20617070726f76652063616c6c6572206973206e6f7420746f60008201527f6b656e206f776e6572206e6f7220617070726f76656420666f7220616c6c0000602082015250565b7f4552433732313a206d696e7420746f20746865207a65726f2061646472657373600082015250565b7f7b226e616d65223a202200000000000000000000000000000000000000000000600082015250565b7f4552433732313a20696e76616c696420746f6b656e2049440000000000000000600082015250565b7f4552433732313a20617070726f76616c20746f2063757272656e74206f776e6560008201527f7200000000000000000000000000000000000000000000000000000000000000602082015250565b7f646174613a6170706c69636174696f6e2f6a736f6e3b6261736536342c000000600082015250565b7f222c202261747472696275746573223a205b207b202274726169745f7479706560008201527f223a20224865616c746820506f696e7473222c202276616c7565223a20000000602082015250565b7f7d2c207b202274726169745f74797065223a202241747461636b2044616d616760008201527f65222c202276616c7565223a2000000000000000000000000000000000000000602082015250565b7f4552433732313a2063616c6c6572206973206e6f7420746f6b656e206f776e6560008201527f72206e6f7220617070726f766564000000000000000000000000000000000000602082015250565b615bd781615441565b8114615be257600080fd5b50565b615bee81615453565b8114615bf957600080fd5b50565b615c058161545f565b8114615c1057600080fd5b50565b615c1c8161548b565b8114615c2757600080fd5b50565b615c33816154bd565b8114615c3e57600080fd5b5056fe506c617965722061747461636b656420626f73732e204e657720626f73732068703a2025732e446f6e6520696e697469616c697a696e6720257320772f20485020257320616e6420696e646578202573446f6e6520696e697469616c697a696e6720257320772f2048502025732c20696d672025734142434445464748494a4b4c4d4e4f505152535455565758595a6162636465666768696a6b6c6d6e6f707172737475767778797a303132333435363738392b2f426f73732061747461636b656420706c617965722e204e657720706c617965722068703a2025730aa26469706673582212208641d01ee95164a0df66bdd10fbb9861d9d5f5ba32bbfad5c6840b5c9a83f84964736f6c63430008070033",
  "devdoc": {
    "kind": "dev",
    "methods": {
      "approve(address,uint256)": {
        "details": "See {IERC721-approve}."
      },
      "balanceOf(address)": {
        "details": "See {IERC721-balanceOf}."
      },
      "getApproved(uint256)": {
        "details": "See {IERC721-getApproved}."
      },
      "isApprovedForAll(address,address)": {
        "details": "See {IERC721-isApprovedForAll}."
      },
      "name()": {
        "details": "See {IERC721Metadata-name}."
      },
      "ownerOf(uint256)": {
        "details": "See {IERC721-ownerOf}."
      },
      "safeTransferFrom(address,address,uint256)": {
        "details": "See {IERC721-safeTransferFrom}."
      },
      "safeTransferFrom(address,address,uint256,bytes)": {
        "details": "See {IERC721-safeTransferFrom}."
      },
      "setApprovalForAll(address,bool)": {
        "details": "See {IERC721-setApprovalForAll}."
      },
      "supportsInterface(bytes4)": {
        "details": "See {IERC165-supportsInterface}."
      },
      "symbol()": {
        "details": "See {IERC721Metadata-symbol}."
      },
      "transferFrom(address,address,uint256)": {
        "details": "See {IERC721-transferFrom}."
      }
    },
    "version": 1
  },
  "userdoc": {
    "kind": "user",
    "methods": {},
    "version": 1
  },
  "storageLayout": {
    "storage": [
      {
        "astId": 1137,
        "contract": "contracts/MyEpicGame.sol:MyEpicGame",
        "label": "_name",
        "offset": 0,
        "slot": "0",
        "type": "t_string_storage"
      },
      {
        "astId": 1139,
        "contract": "contracts/MyEpicGame.sol:MyEpicGame",
        "label": "_symbol",
        "offset": 0,
        "slot": "1",
        "type": "t_string_storage"
      },
      {
        "astId": 1143,
        "contract": "contracts/MyEpicGame.sol:MyEpicGame",
        "label": "_owners",
        "offset": 0,
        "slot": "2",
        "type": "t_mapping(t_uint256,t_address)"
      },
      {
        "astId": 1147,
        "contract": "contracts/MyEpicGame.sol:MyEpicGame",
        "label": "_balances",
        "offset": 0,
        "slot": "3",
        "type": "t_mapping(t_address,t_uint256)"
      },
      {
        "astId": 1151,
        "contract": "contracts/MyEpicGame.sol:MyEpicGame",
        "label": "_tokenApprovals",
        "offset": 0,
        "slot": "4",
        "type": "t_mapping(t_uint256,t_address)"
      },
      {
        "astId": 1157,
        "contract": "contracts/MyEpicGame.sol:MyEpicGame",
        "label": "_operatorApprovals",
        "offset": 0,
        "slot": "5",
        "type": "t_mapping(t_address,t_mapping(t_address,t_bool))"
      },
      {
        "astId": 3020,
        "contract": "contracts/MyEpicGame.sol:MyEpicGame",
        "label": "_tokenIds",
        "offset": 0,
        "slot": "6",
        "type": "t_struct(Counter)2462_storage"
      },
      {
        "astId": 3024,
        "contract": "contracts/MyEpicGame.sol:MyEpicGame",
        "label": "defaultCharacters",
        "offset": 0,
        "slot": "7",
        "type": "t_array(t_struct(CharacterAttributes)2998_storage)dyn_storage"
      },
      {
        "astId": 3028,
        "contract": "contracts/MyEpicGame.sol:MyEpicGame",
        "label": "defaultBosses",
        "offset": 0,
        "slot": "8",
        "type": "t_array(t_struct(BossAttributes)3013_storage)dyn_storage"
      },
      {
        "astId": 3030,
        "contract": "contracts/MyEpicGame.sol:MyEpicGame",
        "label": "owner",
        "offset": 0,
        "slot": "9",
        "type": "t_address"
      },
      {
        "astId": 3032,
        "contract": "contracts/MyEpicGame.sol:MyEpicGame",
        "label": "s_maxLevel",
        "offset": 0,
        "slot": "10",
        "type": "t_uint256"
      },
      {
        "astId": 3037,
        "contract": "contracts/MyEpicGame.sol:MyEpicGame",
        "label": "nftHolderAttributes",
        "offset": 0,
        "slot": "11",
        "type": "t_mapping(t_uint256,t_struct(CharacterAttributes)2998_storage)"
      },
      {
        "astId": 3042,
        "contract": "contracts/MyEpicGame.sol:MyEpicGame",
        "label": "bossAttributes",
        "offset": 0,
        "slot": "12",
        "type": "t_mapping(t_uint256,t_struct(BossAttributes)3013_storage)"
      },
      {
        "astId": 3046,
        "contract": "contracts/MyEpicGame.sol:MyEpicGame",
        "label": "nftHolders",
        "offset": 0,
        "slot": "13",
        "type": "t_mapping(t_address,t_uint256)"
      }
    ],
    "types": {
      "t_address": {
        "encoding": "inplace",
        "label": "address",
        "numberOfBytes": "20"
      },
      "t_array(t_struct(BossAttributes)3013_storage)dyn_storage": {
        "base": "t_struct(BossAttributes)3013_storage",
        "encoding": "dynamic_array",
        "label": "struct MyEpicGame.BossAttributes[]",
        "numberOfBytes": "32"
      },
      "t_array(t_struct(CharacterAttributes)2998_storage)dyn_storage": {
        "base": "t_struct(CharacterAttributes)2998_storage",
        "encoding": "dynamic_array",
        "label": "struct MyEpicGame.CharacterAttributes[]",
        "numberOfBytes": "32"
      },
      "t_bool": {
        "encoding": "inplace",
        "label": "bool",
        "numberOfBytes": "1"
      },
      "t_mapping(t_address,t_bool)": {
        "encoding": "mapping",
        "key": "t_address",
        "label": "mapping(address => bool)",
        "numberOfBytes": "32",
        "value": "t_bool"
      },
      "t_mapping(t_address,t_mapping(t_address,t_bool))": {
        "encoding": "mapping",
        "key": "t_address",
        "label": "mapping(address => mapping(address => bool))",
        "numberOfBytes": "32",
        "value": "t_mapping(t_address,t_bool)"
      },
      "t_mapping(t_address,t_uint256)": {
        "encoding": "mapping",
        "key": "t_address",
        "label": "mapping(address => uint256)",
        "numberOfBytes": "32",
        "value": "t_uint256"
      },
      "t_mapping(t_uint256,t_address)": {
        "encoding": "mapping",
        "key": "t_uint256",
        "label": "mapping(uint256 => address)",
        "numberOfBytes": "32",
        "value": "t_address"
      },
      "t_mapping(t_uint256,t_struct(BossAttributes)3013_storage)": {
        "encoding": "mapping",
        "key": "t_uint256",
        "label": "mapping(uint256 => struct MyEpicGame.BossAttributes)",
        "numberOfBytes": "32",
        "value": "t_struct(BossAttributes)3013_storage"
      },
      "t_mapping(t_uint256,t_struct(CharacterAttributes)2998_storage)": {
        "encoding": "mapping",
        "key": "t_uint256",
        "label": "mapping(uint256 => struct MyEpicGame.CharacterAttributes)",
        "numberOfBytes": "32",
        "value": "t_struct(CharacterAttributes)2998_storage"
      },
      "t_string_storage": {
        "encoding": "bytes",
        "label": "string",
        "numberOfBytes": "32"
      },
      "t_struct(BossAttributes)3013_storage": {
        "encoding": "inplace",
        "label": "struct MyEpicGame.BossAttributes",
        "members": [
          {
            "astId": 3000,
            "contract": "contracts/MyEpicGame.sol:MyEpicGame",
            "label": "bossIndex",
            "offset": 0,
            "slot": "0",
            "type": "t_uint256"
          },
          {
            "astId": 3002,
            "contract": "contracts/MyEpicGame.sol:MyEpicGame",
            "label": "name",
            "offset": 0,
            "slot": "1",
            "type": "t_string_storage"
          },
          {
            "astId": 3004,
            "contract": "contracts/MyEpicGame.sol:MyEpicGame",
            "label": "imageURI",
            "offset": 0,
            "slot": "2",
            "type": "t_string_storage"
          },
          {
            "astId": 3006,
            "contract": "contracts/MyEpicGame.sol:MyEpicGame",
            "label": "hp",
            "offset": 0,
            "slot": "3",
            "type": "t_uint256"
          },
          {
            "astId": 3008,
            "contract": "contracts/MyEpicGame.sol:MyEpicGame",
            "label": "maxHp",
            "offset": 0,
            "slot": "4",
            "type": "t_uint256"
          },
          {
            "astId": 3010,
            "contract": "contracts/MyEpicGame.sol:MyEpicGame",
            "label": "attackDamage",
            "offset": 0,
            "slot": "5",
            "type": "t_uint256"
          },
          {
            "astId": 3012,
            "contract": "contracts/MyEpicGame.sol:MyEpicGame",
            "label": "bossExp",
            "offset": 0,
            "slot": "6",
            "type": "t_uint256"
          }
        ],
        "numberOfBytes": "224"
      },
      "t_struct(CharacterAttributes)2998_storage": {
        "encoding": "inplace",
        "label": "struct MyEpicGame.CharacterAttributes",
        "members": [
          {
            "astId": 2977,
            "contract": "contracts/MyEpicGame.sol:MyEpicGame",
            "label": "characterIndex",
            "offset": 0,
            "slot": "0",
            "type": "t_uint256"
          },
          {
            "astId": 2979,
            "contract": "contracts/MyEpicGame.sol:MyEpicGame",
            "label": "name",
            "offset": 0,
            "slot": "1",
            "type": "t_string_storage"
          },
          {
            "astId": 2981,
            "contract": "contracts/MyEpicGame.sol:MyEpicGame",
            "label": "imageURI",
            "offset": 0,
            "slot": "2",
            "type": "t_string_storage"
          },
          {
            "astId": 2983,
            "contract": "contracts/MyEpicGame.sol:MyEpicGame",
            "label": "level",
            "offset": 0,
            "slot": "3",
            "type": "t_uint256"
          },
          {
            "astId": 2985,
            "contract": "contracts/MyEpicGame.sol:MyEpicGame",
            "label": "exp",
            "offset": 0,
            "slot": "4",
            "type": "t_uint256"
          },
          {
            "astId": 2987,
            "contract": "contracts/MyEpicGame.sol:MyEpicGame",
            "label": "maxExp",
            "offset": 0,
            "slot": "5",
            "type": "t_uint256"
          },
          {
            "astId": 2989,
            "contract": "contracts/MyEpicGame.sol:MyEpicGame",
            "label": "hp",
            "offset": 0,
            "slot": "6",
            "type": "t_uint256"
          },
          {
            "astId": 2991,
            "contract": "contracts/MyEpicGame.sol:MyEpicGame",
            "label": "maxHp",
            "offset": 0,
            "slot": "7",
            "type": "t_uint256"
          },
          {
            "astId": 2993,
            "contract": "contracts/MyEpicGame.sol:MyEpicGame",
            "label": "attackDamage",
            "offset": 0,
            "slot": "8",
            "type": "t_uint256"
          },
          {
            "astId": 2995,
            "contract": "contracts/MyEpicGame.sol:MyEpicGame",
            "label": "dexterity",
            "offset": 0,
            "slot": "9",
            "type": "t_uint256"
          },
          {
            "astId": 2997,
            "contract": "contracts/MyEpicGame.sol:MyEpicGame",
            "label": "luck",
            "offset": 0,
            "slot": "10",
            "type": "t_uint256"
          }
        ],
        "numberOfBytes": "352"
      },
      "t_struct(Counter)2462_storage": {
        "encoding": "inplace",
        "label": "struct Counters.Counter",
        "members": [
          {
            "astId": 2461,
            "contract": "contracts/MyEpicGame.sol:MyEpicGame",
            "label": "_value",
            "offset": 0,
            "slot": "0",
            "type": "t_uint256"
          }
        ],
        "numberOfBytes": "32"
      },
      "t_uint256": {
        "encoding": "inplace",
        "label": "uint256",
        "numberOfBytes": "32"
      }
    }
  }
}