{
  "address": "0xB33b0c4d6485e086b75CC31EA91efCA2B4f67668",
  "abi": [
    {
      "inputs": [
        {
          "internalType": "address",
          "name": "vrfCoordinatorV2",
          "type": "address"
        },
        {
          "internalType": "bytes32",
          "name": "gasLane",
          "type": "bytes32"
        },
        {
          "internalType": "uint64",
          "name": "subscriptionid",
          "type": "uint64"
        },
        {
          "internalType": "uint32",
          "name": "callbackGasLimit",
          "type": "uint32"
        }
      ],
      "stateMutability": "nonpayable",
      "type": "constructor"
    },
    {
      "inputs": [
        {
          "internalType": "address",
          "name": "have",
          "type": "address"
        },
        {
          "internalType": "address",
          "name": "want",
          "type": "address"
        }
      ],
      "name": "OnlyCoordinatorCanFulfill",
      "type": "error"
    },
    {
      "anonymous": false,
      "inputs": [
        {
          "indexed": false,
          "internalType": "uint256",
          "name": "requestId",
          "type": "uint256"
        },
        {
          "indexed": false,
          "internalType": "uint256",
          "name": "randomNumber",
          "type": "uint256"
        }
      ],
      "name": "RandomNumberCreated",
      "type": "event"
    },
    {
      "anonymous": false,
      "inputs": [
        {
          "indexed": false,
          "internalType": "uint256",
          "name": "requestId",
          "type": "uint256"
        },
        {
          "indexed": false,
          "internalType": "address",
          "name": "sender",
          "type": "address"
        }
      ],
      "name": "RequestedRandomNumber",
      "type": "event"
    },
    {
      "inputs": [
        {
          "internalType": "address",
          "name": "sender",
          "type": "address"
        },
        {
          "internalType": "uint256",
          "name": "playerParameter",
          "type": "uint256"
        }
      ],
      "name": "dodgeOrCritical",
      "outputs": [
        {
          "internalType": "bool",
          "name": "",
          "type": "bool"
        }
      ],
      "stateMutability": "view",
      "type": "function"
    },
    {
      "inputs": [
        {
          "internalType": "uint256",
          "name": "requestId",
          "type": "uint256"
        },
        {
          "internalType": "uint256[]",
          "name": "randomWords",
          "type": "uint256[]"
        }
      ],
      "name": "rawFulfillRandomWords",
      "outputs": [],
      "stateMutability": "nonpayable",
      "type": "function"
    },
    {
      "inputs": [],
      "name": "requestRandonNumber",
      "outputs": [],
      "stateMutability": "nonpayable",
      "type": "function"
    },
    {
      "inputs": [
        {
          "internalType": "uint256",
          "name": "",
          "type": "uint256"
        }
      ],
      "name": "s_attackers",
      "outputs": [
        {
          "internalType": "address",
          "name": "",
          "type": "address"
        }
      ],
      "stateMutability": "view",
      "type": "function"
    },
    {
      "inputs": [
        {
          "internalType": "address",
          "name": "",
          "type": "address"
        }
      ],
      "name": "s_results",
      "outputs": [
        {
          "internalType": "uint256",
          "name": "",
          "type": "uint256"
        }
      ],
      "stateMutability": "view",
      "type": "function"
    }
  ],
  "transactionHash": "0xea8a783c851682b203cc553e721fa221b9df7916f4e62da134923ed6db80dec0",
  "args": [
    "0x6168499c0cFfCaCD319c818142124B7A15E857ab",
    "0xd89b2bf150e3b9e13446986e571fb9cab24b13cea0a43ea20a6049a85cc807cc",
    "0",
    "500000"
  ],
  "numDeployments": 1,
  "solcInputHash": "ff208b2d84c66cb87728b57fede432a9",
  "bytecode": "0x6101206040523480156200001257600080fd5b5060405162000e9638038062000e9683398181016040528101906200003891906200014d565b838073ffffffffffffffffffffffffffffffffffffffff1660808173ffffffffffffffffffffffffffffffffffffffff1660601b81525050508373ffffffffffffffffffffffffffffffffffffffff1660a08173ffffffffffffffffffffffffffffffffffffffff1660601b815250508260c081815250508167ffffffffffffffff1660e08167ffffffffffffffff1660c01b815250508063ffffffff166101008163ffffffff1660e01b81525050505050506200028e565b600081519050620001028162000226565b92915050565b600081519050620001198162000240565b92915050565b60008151905062000130816200025a565b92915050565b600081519050620001478162000274565b92915050565b600080600080608085870312156200016a576200016962000221565b5b60006200017a87828801620000f1565b94505060206200018d8782880162000108565b9350506040620001a08782880162000136565b9250506060620001b3878288016200011f565b91505092959194509250565b6000620001cc82620001dd565b9050919050565b6000819050919050565b600073ffffffffffffffffffffffffffffffffffffffff82169050919050565b600063ffffffff82169050919050565b600067ffffffffffffffff82169050919050565b600080fd5b6200023181620001bf565b81146200023d57600080fd5b50565b6200024b81620001d3565b81146200025757600080fd5b50565b6200026581620001fd565b81146200027157600080fd5b50565b6200027f816200020d565b81146200028b57600080fd5b50565b60805160601c60a05160601c60c05160e05160c01c6101005160e01c610bb0620002e660003960006102fd015260006102da015260006102b90152600061027d01526000818161011401526101680152610bb06000f3fe608060405234801561001057600080fd5b50600436106100575760003560e01c80631fe543e31461005c57806343f80b97146100785780637660d02a146100a8578063c4c97c4e146100d8578063cdae629414610108575b600080fd5b610076600480360381019061007191906106fa565b610112565b005b610092600480360381019061008d91906106a0565b6101d2565b60405161009f91906107bf565b60405180910390f35b6100c260048036038101906100bd9190610660565b610205565b6040516100cf9190610803565b60405180910390f35b6100f260048036038101906100ed9190610633565b610261565b6040516100ff9190610871565b60405180910390f35b610110610279565b005b7f000000000000000000000000000000000000000000000000000000000000000073ffffffffffffffffffffffffffffffffffffffff163373ffffffffffffffffffffffffffffffffffffffff16146101c457337f00000000000000000000000000000000000000000000000000000000000000006040517f1cf993f40000000000000000000000000000000000000000000000000000000081526004016101bb9291906107da565b60405180910390fd5b6101ce828261046a565b5050565b60006020528060005260406000206000915054906101000a900473ffffffffffffffffffffffffffffffffffffffff1681565b600081600160008573ffffffffffffffffffffffffffffffffffffffff1673ffffffffffffffffffffffffffffffffffffffff1681526020019081526020016000205411610256576001905061025b565b600090505b92915050565b60016020528060005260406000206000915090505481565b60007f000000000000000000000000000000000000000000000000000000000000000073ffffffffffffffffffffffffffffffffffffffff16635d3b1d307f00000000000000000000000000000000000000000000000000000000000000007f000000000000000000000000000000000000000000000000000000000000000060037f000000000000000000000000000000000000000000000000000000000000000060016040518663ffffffff1660e01b815260040161033e95949392919061081e565b602060405180830381600087803b15801561035857600080fd5b505af115801561036c573d6000803e3d6000fd5b505050506040513d601f19601f8201168201806040525081019061039091906106cd565b90503360008083815260200190815260200160002060006101000a81548173ffffffffffffffffffffffffffffffffffffffff021916908373ffffffffffffffffffffffffffffffffffffffff160217905550600063ffffffff16600160003373ffffffffffffffffffffffffffffffffffffffff1673ffffffffffffffffffffffffffffffffffffffff168152602001908152602001600020819055507fd6598998ddac6117a6cbdf6c8a3dbd54ddd9b8e98d37b51b85acdff0f83ede52813360405161045f92919061088c565b60405180910390a150565b6000600160648360008151811061048457610483610ac9565b5b60200260200101516104969190610a3a565b6104a0919061092f565b9050806001600080600087815260200190815260200160002060009054906101000a900473ffffffffffffffffffffffffffffffffffffffff1673ffffffffffffffffffffffffffffffffffffffff1673ffffffffffffffffffffffffffffffffffffffff168152602001908152602001600020819055507f0bbfb2bbc9ab2ad2cf499bba841f1b575328f61e4982607c0f61070f84b8788a83826040516105499291906108b5565b60405180910390a1505050565b600061056961056484610903565b6108de565b9050808382526020820190508285602086028201111561058c5761058b610b2c565b5b60005b858110156105bc57816105a28882610609565b84526020840193506020830192505060018101905061058f565b5050509392505050565b6000813590506105d581610b4c565b92915050565b600082601f8301126105f0576105ef610b27565b5b8135610600848260208601610556565b91505092915050565b60008135905061061881610b63565b92915050565b60008151905061062d81610b63565b92915050565b60006020828403121561064957610648610b36565b5b6000610657848285016105c6565b91505092915050565b6000806040838503121561067757610676610b36565b5b6000610685858286016105c6565b925050602061069685828601610609565b9150509250929050565b6000602082840312156106b6576106b5610b36565b5b60006106c484828501610609565b91505092915050565b6000602082840312156106e3576106e2610b36565b5b60006106f18482850161061e565b91505092915050565b6000806040838503121561071157610710610b36565b5b600061071f85828601610609565b925050602083013567ffffffffffffffff8111156107405761073f610b31565b5b61074c858286016105db565b9150509250929050565b61075f81610985565b82525050565b61076e81610997565b82525050565b61077d816109a3565b82525050565b61078c816109ad565b82525050565b61079b816109db565b82525050565b6107aa816109e5565b82525050565b6107b9816109f5565b82525050565b60006020820190506107d46000830184610756565b92915050565b60006040820190506107ef6000830185610756565b6107fc6020830184610756565b9392505050565b60006020820190506108186000830184610765565b92915050565b600060a0820190506108336000830188610774565b61084060208301876107b0565b61084d6040830186610783565b61085a60608301856107a1565b61086760808301846107a1565b9695505050505050565b60006020820190506108866000830184610792565b92915050565b60006040820190506108a16000830185610792565b6108ae6020830184610756565b9392505050565b60006040820190506108ca6000830185610792565b6108d76020830184610792565b9392505050565b60006108e86108f9565b90506108f48282610a09565b919050565b6000604051905090565b600067ffffffffffffffff82111561091e5761091d610af8565b5b602082029050602081019050919050565b600061093a826109db565b9150610945836109db565b9250827fffffffffffffffffffffffffffffffffffffffffffffffffffffffffffffffff0382111561097a57610979610a6b565b5b828201905092915050565b6000610990826109bb565b9050919050565b60008115159050919050565b6000819050919050565b600061ffff82169050919050565b600073ffffffffffffffffffffffffffffffffffffffff82169050919050565b6000819050919050565b600063ffffffff82169050919050565b600067ffffffffffffffff82169050919050565b610a1282610b3b565b810181811067ffffffffffffffff82111715610a3157610a30610af8565b5b80604052505050565b6000610a45826109db565b9150610a50836109db565b925082610a6057610a5f610a9a565b5b828206905092915050565b7f4e487b7100000000000000000000000000000000000000000000000000000000600052601160045260246000fd5b7f4e487b7100000000000000000000000000000000000000000000000000000000600052601260045260246000fd5b7f4e487b7100000000000000000000000000000000000000000000000000000000600052603260045260246000fd5b7f4e487b7100000000000000000000000000000000000000000000000000000000600052604160045260246000fd5b600080fd5b600080fd5b600080fd5b600080fd5b6000601f19601f8301169050919050565b610b5581610985565b8114610b6057600080fd5b50565b610b6c816109db565b8114610b7757600080fd5b5056fea26469706673582212206a033b453ad7c183286bdf39f3aa0bfe88718a328a7acc9f3b3b67d3f0545ed364736f6c63430008070033",
  "devdoc": {
    "kind": "dev",
    "methods": {},
    "version": 1
  },
  "userdoc": {
    "kind": "user",
    "methods": {},
    "version": 1
  },
  "storageLayout": {
    "storage": [
      {
        "astId": 2820,
        "contract": "contracts/GameEngine.sol:GameEngine",
        "label": "s_attackers",
        "offset": 0,
        "slot": "0",
        "type": "t_mapping(t_uint256,t_address)"
      },
      {
        "astId": 2824,
        "contract": "contracts/GameEngine.sol:GameEngine",
        "label": "s_results",
        "offset": 0,
        "slot": "1",
        "type": "t_mapping(t_address,t_uint256)"
      }
    ],
    "types": {
      "t_address": {
        "encoding": "inplace",
        "label": "address",
        "numberOfBytes": "20"
      },
      "t_mapping(t_address,t_uint256)": {
        "encoding": "mapping",
        "key": "t_address",
        "label": "mapping(address => uint256)",
        "numberOfBytes": "32",
        "value": "t_uint256"
      },
      "t_mapping(t_uint256,t_address)": {
        "encoding": "mapping",
        "key": "t_uint256",
        "label": "mapping(uint256 => address)",
        "numberOfBytes": "32",
        "value": "t_address"
      },
      "t_uint256": {
        "encoding": "inplace",
        "label": "uint256",
        "numberOfBytes": "32"
      }
    }
  }
}